:020000040800F2
:10000000082C0020E9000008F1000008691D000824
:10001000751D0008F7000008F90000080000000046
:10002000000000000000000000000000FB000008CD
:10003000FD00000800000000FF000008CD230008BC
:100040000301000803010008030100080301000880
:1000500003010008211A0008551A0008F1180008C9
:10006000000000000301000803010008030100086C
:1000700003010008B124000803010008000000008B
:10008000D1240008F12400080000000031240008F9
:10009000512400087124000891240008030100087D
:1000A000030100080301000803010008E927000814
:1000B0000301000800000000000000000000000034
:1000C000030100080000000003010008DFF814D05D
:1000D00000F0EEFE00F058FA00480047F1A50008D5
:1000E00001F0E6F8082C0020064880470648004743
:1000F000FEE7FEE7FEE7FEE7FEE7FEE7FEE7FEE7D8
:10010000FEE7FEE7DD230008CD0000082DE9F05FE3
:100110000546002092469B46884606468146402476
:100120001BE0284641464746224600F020F8534649
:100130005A46C01A914110D311461846224600F083
:10014000E7FC2D1A67EB01084F46224601200021EB
:1001500000F0DEFC17EB00094E41201EA4F1010463
:10016000DFDC484631462A464346BDE8F09F202A58
:1001700004DB203A21FA02F00021704721FA02F351
:10018000D040C2F12002914008431946704710B593
:10019000431A934209D28318881803E010F8011D0E
:1001A00003F8011D521EF9D210BD40EA01039B075E
:1001B00003D009E008C9121F08C0042AFAD203E0DC
:1001C00011F8013B00F8013B521EF9D210BDD2B22A
:1001D00001E000F8012B491EFBD270470022F6E730
:1001E00010B513460A4604461946FFF7F0FF2046AD
:1001F00010BD10B5044604E00B7800F8013B03B1D4
:10020000491C521EF8D2204610BD421C10F8011B9A
:100210000029FBD1801A704710B5002200E0521C63
:10022000835C8C5CA34201D1002BF8D1D8B2E1B23F
:10023000401A10BD30B505460020034600E05B1CA7
:10024000934205D2EC5CC85C201A01D1002CF6D197
:1002500030BD000070B50F4D00B92868002412E0D1
:100260000A4602E09E4203D0521C1378002BF9D1BB
:10027000DAB2224305D02BB124B1002100F8011BD2
:1002800004E00446401C0678002EE9D12860204690
:1002900070BD0000080000200FB400B58DB010A99B
:1002A00009900B9000914FF0FF300A9000200C90C5
:1002B00005480690054807906A4609A80F9900F07E
:1002C0006BFC0DB05DF814FBB50B0008D30B0008F8
:1002D0002DE9FF5F1D464FF0FF3BD5E901469146F2
:1002E0005F464FF00008A9697F1C01988847296A7A
:1002F000824688470028F6D1BAF1FF3F0CD024F49B
:10030000C064002E19DD600614D5BAF12B0F09D098
:10031000BAF12D0F0ED103E0584604B0BDE8F09FAE
:1003200044F48064A9697F1C01988847761E824640
:10033000002E02DDBAF1300F03D0B9F1000F26D044
:1003400032E0A969761E44F400747F1C0198884746
:100350008246002E05DDBAF1780F06D0BAF1580FAB
:1003600003D0B9F1000F10D01EE0B9F1000F02D098
:10037000B9F1100F18D1A969761E24F400747F1CFE
:10038000019888478246102002E0082000E00A20F9
:10039000814609E008FB0908A969761E44F4007447
:1003A0007F1C019888478246002E05DD494650464D
:1003B00000F0DDFB0028EDDAE96901988847A00527
:1003C00002D46FF00100A8E7E00725D1600613D53D
:1003D000600502D5C8F1000000E0404629680A1D0A
:1003E0002A600968220501D5087015E0220701D5A9
:1003F000088011E008600FE02868011D296000688E
:10040000210502D580F8008006E0210702D5A0F87A
:10041000008001E0C0F8008038467EE72DE9FF5FEC
:10042000D2E901A74FF00008916999461446DDF81A
:1004300038B0464601988847054659EA0B0005D072
:1004400009E0A169761C019888470546216A28467B
:1004500088470028F5D1681C03D05FEACA7005D030
:1004600015E04FF0FF3004B0BDE8F09F2068011D9B
:100470002160D0F800800AE05FEACA7001D108F874
:10048000015BA169761C7F1E019888470546002FF5
:100490001ADD681C18D0B9F1000F0DD0E81705EB74
:1004A000D060421120F01F0059F822102A1A0120B2
:1004B00090400142E0D107E0BBF1000FDCD1216A9E
:1004C000284688470028D7D0E16901988847BBF1C2
:1004D000000F07D1002E05DD5FEACA7002D10021AE
:1004E00088F80010A068B84203DDBBF1000F03D00C
:1004F00017B16FF00100B6E73046B4E72DE9F047D9
:1005000091460F4680460446002614F8015B2DB143
:1005100000F020FB0068405DC007F6D12B2D02D013
:100520002D2D18D0641E4A463946204600F062FB45
:1005300027B13968A14201D1C7F8008071054FF099
:1005400002040BD54042002803DD0BF073FC04606D
:10055000A007BDE8F08746F48066E4E70028F8DAF3
:100560000BF068FC04606FF00040F2E770B50646DF
:100570000BF060FC046805460A2200213046FFF7B4
:10058000BDFF2C6070BD000070B5054C054D04E04A
:100590002046016808448047241DAC42F8D170BD54
:1005A00060E5000864E500080B460146184600F0C7
:1005B00074BBF0B480EA0102D40F4200B2EB410FE9
:1005C00002D20246084611464A0042D0C30DDDB2AF
:1005D000C1F3C752AD1A202D35DAC1F3160141F42B
:1005E000000204B15242C5F1200602FA06F12A4186
:1005F0001044B3EBD05F23D0C4B1012DA0EBC350A6
:1006000009DCF0BC4FF0004202EAC352DBB200F555
:10061000000000F062BB400000F1807000EBC350AE
:10062000A0F1807040EAD170490009E0490841EA30
:10063000C071A0EBC35000F50000400800EBC350B0
:10064000F0BC00F041BB6142012202EB4101001B02
:10065000F6E7F0BC704781F00041AAE780F0004067
:10066000A7E780EA010210B502F00043400022D063
:100670004A001FD0010E01EB1261C0F35600C2F315
:10068000560240F4000042F40002A0FB02200004E5
:100690007F39140400D0401C50EA124001D44000BD
:1006A000491EC2B20C0604EBD010401C4008802A40
:1006B00002D003E0002010BD20F00100002900DA84
:1006C0000020184310BD30B480EA010202F000455A
:1006D00030F0004221F0004013D090B1C30DD40D92
:1006E000C2F31601C0F31600E41A41F4000140F40D
:1006F00000027D34914201D3641C00E04900002CCB
:1007000002DA30BC002070474FF400000023914211
:1007100001D3891A034340084FEA4101F7D151B18F
:10072000914202D14FF0004105E002D24FF00101A9
:1007300001E06FF0010103EBC450284430BC00F02D
:10074000C3BA2DE9FE4F804681EA0300C00F0C4674
:10075000009021F0004123F00045B8EB0200A941D0
:1007600005D24046214690461C460B46024623F0E1
:100770000040104347D0270DC7F30A00C3F30A51C6
:100780000290401A019040286BDAC3F3130040F442
:10079000801B0098924620B10023D2EB030A63EB42
:1007A0000B0B01985946C0F14002504600F0B0F9D9
:1007B00006460D4650465946019A00F0B8F910EB2E
:1007C00008006141002487EA115284EAE7731A4362
:1007D00040D0009A62B3019A012A4FEA075215DC11
:1007E000001B61EB02014FF0004202EA0752CDE923
:1007F0000042001C41F5801132462B4600F0D9FA28
:1008000003B0BDE8F08F40462146F9E7001B61EBDD
:100810000201001C41F5801300185B412018A2F56D
:10082000001747EB030140EAD570B6196D4111E09E
:100830006D084FEA360645EAC0754FEA0752001BBD
:1008400061EB0201001C41F5801149084FEA3000BC
:100850000019514132462B4603B0BDE8F04F00F07D
:1008600099BA0098012240000023D0EB020263EB0A
:10087000E073009821464FEAE074B8EB000061EBAA
:100880000401E9E783F000435BE781F0004158E7AA
:100890002DE9FE4F81EA030404F0004421F00041F9
:1008A00000944FF0000B23F0004350EA01045ED0A7
:1008B00052EA03045BD0C3F30A54C1F30A552C4433
:1008C000A4F2F3340194A0FB0254C1F3130141F4E8
:1008D0008011C3F3130343F4801301FB024400FBB4
:1008E000034E840A970A44EA815447EA8357A4FBDB
:1008F000076802958D0A05FB07854FEA932C04FBD8
:100900000C542705029D4FEA065847EA1637B5EB07
:1009100008056EEB070C870E920E47EA811742EA34
:100920008312A7FB0201B6EB0B0164EB00042B0D55
:1009300043EA0C335E1844EB1C50DA465146E7FBA1
:100940000201C5F313044FEA0B3343EA14534FEA91
:100950000432019C43EA0603A4F10C040294009CB7
:10096000CDE900B400F025FA03B0BDE8F08F002017
:100970000146F9E72DE9F04D81EA030404F0004B4C
:1009800021F0004514464FF0000A23F0004150EAE0
:10099000050220D054EA01021DD0C5F30A570246D1
:1009A000C5F31303C1F31300C1F30A5640F48015D5
:1009B00043F48013A7EB0608101BD64608F2FD3857
:1009C00073EB050002D308F1010801E092185B41C6
:1009D000B8F1000F03DA00200146BDE8F08D0020D9
:1009E0004FF48011064684460EE0171B73EB050793
:1009F00005D3121B63EB050306434CEA010C4908BF
:100A00004FEA300092185B4150EA0107EDD152EAFB
:100A1000030012D082EA040083EA0501084305D0EE
:100A2000101BAB4106D20122002306E000224FF04A
:100A3000004302E06FF0010253101AEB06004CEB8A
:100A4000085110EB0A0041EB0B01BDE8F04D00F03E
:100A5000A1B9002801DBC0F10040002901DBC1F190
:100A60000041814201D30120704700207047C10F2F
:100A700080EAE0700844CA079623002100F02DB9EF
:100A800096230022114600F028B900F0004220F021
:100A90000040C10DC0F3160040F400007F2901DAC8
:100AA00000207047962903DCC1F19601C84001E09F
:100AB00096398840002AF4D04042704720F0004028
:100AC000C10DC0F3160040F400007F2901DA0020B8
:100AD0007047962903DCC1F19601C84070479639EA
:100AE0008840704730B50B46014600202022012483
:100AF00009E021FA02F59D4205D303FA02F5491BEC
:100B000004FA02F52844151EA2F10102F1DC30BD01
:100B1000202A04DB203A00FA02F1002070479140BD
:100B2000C2F1200320FA03F3194390407047202AB2
:100B300006DBCB17203A41FA02F043EAE07306E005
:100B400041FA02F3D040C2F1200291400843194615
:100B5000704700000048704708C9000810B50446F7
:100B6000FFF7F8FF0068005D00F0010010BD3A28B3
:100B700000D2303820F02002412A01D3A2F1370000
:100B8000884201D34FF0FF307047000002681144E3
:100B90001378016018467047D160044951610449D7
:100BA000116200211161114600F094B98D0B00080B
:100BB0005D0B0008426842B1016811F8013B23B1A6
:100BC000521EC0E90012184670470121C160881EFC
:100BD000704742685AB1C368016843B983688B4261
:100BE00005D0491E521CC0E90012002070474FF08A
:100BF000FF3070472DE9F05F8246007800271546E8
:100C00008B460AF10104B946302801D09DB113E0AA
:100C100014F8010B0127782803D0582801D045B1DA
:100C20000AE00DB1102D07D10027102514F8010B93
:100C300002E0082500E00A250026B0460EE005FB8C
:100C4000080005FB06F1012701EB10461FFA80F8AA
:100C5000B6F5803F00D3B94614F8010B2946FFF7DB
:100C600086FF0028EBDABBF1000F05D00FB1641E40
:100C700000E05446CBF80040B9F1000F06D00BF06D
:100C8000D9F802210160C81EBDE8F09F48EA06407D
:100C9000FAE70023036000F0D2BA2DE9F0410746DD
:100CA00015460E4610200BF097FD04000AD0676031
:100CB000C4E9026500F0F8FA0168216004600020D0
:100CC000BDE8F0810120FBE70029A8BF7047401C68
:100CD000490008BF20F00100704710B4B0FA80FC52
:100CE00000FA0CF050EA010404BF10BC704749B18F
:100CF000CCF1200421FA04F411FA0CF118BF0121FF
:100D000021430843A3EB0C01CB1D4FEA00614FEADE
:100D1000102042BF002010BC704700EBC3501044AD
:100D20000029A4BF10BC7047401C490008BF20F038
:100D3000010010BC7047F0B4002802DCF0BC0020B9
:100D40007047C0F3C751C0F3160040F40000CA0753
:100D500001D14000491E3F2202EB610500221146ED
:100D60004FF4000626FA01F31344D418844201D844
:100D7000001B1A464000491C1729F3DD510081422F
:100D800002D24FF0FF3100E0002102EBC550F0BC71
:100D9000FFF79ABF10B5141E73F1000408DA401C67
:100DA00041F1000192185B411A4301D120F001008A
:100DB00010BD2DE9F04D92469B4611B1B1FA81F27A
:100DC00002E0B0FA80F220329046FFF7A1FE04461E
:100DD0000F4640EA0A0041EA0B0153465A460843CF
:100DE00013D0114653EA010019D0C8F14002504611
:100DF000FFF7BDF905460E46504659464246FFF7F5
:100E000087FE084305D0012004E020463946BDE8AE
:100E1000F08D0020054346EAE0762C4337430A98DC
:100E20006305E40AA0EB08000022FD0A44EA4754E7
:100E30000A3002D500200146E9E701051019694191
:100E4000DDE9084500196941BDE8F04DA2E7C1F3AD
:100E50000A52C1F3130140F2FF3341F480119A4268
:100E600002DA00200146704740F233439A42A2F270
:100E7000334202DC5242FFF77AB9FFF749BE000065
:100E800030B5041E71F1000404DB4FF00044404211
:100E900064EB0101141E73F1000405DB1C464FF0E6
:100EA0000043524263EB0403994208BF904230BDB5
:100EB000064C074D06E0E06840F0010394E80700A7
:100EC00098471034AC42F6D3FFF704F940E5000828
:100ED00060E500082DE9F34F8BB04FF0000801F1F9
:100EE0000C000C464FF0010B46460DF1080A01902C
:100EF0006269012101989047051E2DD0252D2CD027
:100F0000216A8847C0B16269012101989047216A2E
:100F100088470028F7D1411E62690198904700E098
:100F2000761CA1690B988847216A88470028F7D169
:100F3000E1690B988847DBE7A1690B98884707466A
:100F4000A84201D1761CD3E7E1690B9888477F1C42
:100F500002D1B8F1000F6FD046E1002762693D462B
:100F60003946019890472A2804D1626901210198E5
:100F700090470125DFF8849262690121019890472A
:100F8000A0F130010A290AD24F45E5DC07EB8701C1
:100F900000EB4107303FDFD445F01005ECE7E906F0
:100FA00001D46FF000476C280AD04C2814D0682870
:100FB00015D06A280DD074281CD07A281AD01DE0CC
:100FC00062690121019890476C2802D045F0040520
:100FD00014E045F002050DE045F020050AE06269E5
:100FE000012101989047682802D045F0080505E0E6
:100FF00045F400656269012101989047C4E90157F1
:1010000065283DD019DC58287AD00CDC452837D02B
:1010100004DC252826D0412831D131E046282FD0C4
:1010200047282CD12CE05B2877D0612828D0632872
:101030007CD0642823D15AE0D0E06F2848D008DC67
:1010400066281DD067281BD0692821D06E2816D1AC
:1010500027E0702845D0732868D0752847D07828B5
:101060000DD14DE0A1690B988847054625283FF42E
:1010700069AFE1690B9888476D1C3FF46AAFB3E034
:1010800023466A466FF001000B9900F0C7F99EE015
:1010900045F040006060A80723464FF0000236D4B8
:1010A0003EE0E8077FF447AF2068011D216000683B
:1010B000290501D506701BE7290701D5068017E72A
:1010C000A90703D5F117C0E9006111E706600FE732
:1010D00045F040006060A80723464FF0080216D490
:1010E0001EE040F60E0125EA0100606016E045F0C2
:1010F00040006060A80723464FF00A0207D40FE0C3
:1011000045F040006060A80708D5234610226FF024
:1011100001000B99AFF3008059E007E0234610224D
:101120006FF001000B99FFF7D3F850E04FF0000982
:101130004F464B46632802D05B2806D040E0E806C5
:1011400001D40120A06001273AE0626901210198E1
:1011500090475E2805D14FF0010962694946019820
:101160009047216939B900210A46534643F82120A6
:10117000491C0829FADBB0B3216969B9C11700EB32
:10118000D16253110AEB830122F01F02821A01205F
:101190000B68904003430B606269012101989047FE
:1011A0005D28E8D1B9F1000F09D00020514651F86F
:1011B0002020D24341F82020401C0828F7DB02AB56
:1011C000224600976FF001000B99FFF727F90028DE
:1011D0000CDA401C08D1BBF1000F05D04FF0FF30F6
:1011E0000DB0BDE8F08FFFE74046F9E7E90701D110
:1011F00008F1010806444FF0000B79E6CCCCCC0C8A
:101200000FB40B0010B58AB00FA900910E994FF0E2
:101210000004234ACC60214CCDE9064200D00423CF
:101220006FF00042CDE901321E4A089202466B4639
:10123000002000F0F3F80AB010BC5DF814FBF0B524
:1012400085B007464FF0FF300091CDE901011E4601
:10125000002015460C4604903B466A46314604A8D9
:10126000FFF7CEFF04990346601825B109B1024685
:1012700000E022462A6000290ED0002B02DD0099F2
:10128000814209D00094001BCDE901043B466A4627
:10129000314604A8FFF7B4FF05B0F0BDB50B000858
:1012A000D30B00085D0B00080048704710000020B9
:1012B0002DE9F0410646FFF7F7FF8046454613E06B
:1012C00016B1E068B0420ED120682860D4E901016F
:1012D000D8F80070884720460BF044FAD8F8000090
:1012E000B842EBD100E025462C68002CE8D1BDE8DF
:1012F000F08100002DE9FF4F087883B09946FF2860
:1013000005D0491C2D2804D00024002008E000202E
:101310000BE00124F9E700EB800003EB4000491CDF
:101320000B78FF2BF7D104B14042002302931478CD
:1013300019461D462D2C01D02B2C04D1521C2D2CCE
:1013400013D000240294AA461478FF2C0FD00A254B
:10135000A3FB057801FB05814FF0000C03FB0C118A
:10136000521CE3194AEB0101EEE70124EAE781444C
:1013700053EA010002D019F5C87F06DA039800216C
:10138000C0E9001107B0BDE8F08F0025AE4E2F4632
:10139000DFF8B882184600F05EF9CDE90001B9F136
:1013A000000002DAC9F1000400E004460023A74A65
:1013B0001AEB030B42EB045A12E0E00707D02A466F
:1013C000334638464146FFF763FA074688462A46C1
:1013D000334610461946FFF75BFA05460E46641081
:1013E000002CEAD1DDE90001B9F1000F5A4653465D
:1013F00006DAFFF7BFFA3A464346FFF7BBFA05E0C5
:10140000FFF746FA3A464346FFF742FA029A0AB114
:1014100081F00041039AC2E90001B3E72DE9FF4FD3
:101420001F468DB0D7E901464FF0FF382E204546C4
:101430004FF000090B90B9696D1C0E988847396A06
:10144000824688470028F6D1BAF1FF3F0AD024F43B
:10145000D064002E11DDBAF12B0F08D0BAF12D0F98
:101460000BD102E0404611B08DE744F48064B969C5
:101470006D1C0E9888478246761E6946600501D528
:101480002D2000E02B208DF8000001F1010B0DF163
:10149000200809E0B9696D1C0E98884782460F98AC
:1014A00044F40074761E0560002E02DDBAF1300FA0
:1014B000F0D00B998A453ED144F0800406E00F99A4
:1014C000681CA9F1010944F400740860B9696D1C35
:1014D000761E0E98884782463028F0D02BE00B9974
:1014E0008A4505D1200603D444F08004761E18E016
:1014F00050460AF07BFD08B30DF11302761EAAF1E7
:10150000300044F40074934506D20BF8010B20061A
:1015100007D5A9F1010003E0200602D409F101007A
:101520008146A00502D50F99681C0860B9696D1C39
:101530000E9888478246002ED1DC53E0002E51DD04
:10154000BAF1650F02D0BAF1450F4BD1A00549D5CC
:10155000B9696D1C24F44074761E0E988847824643
:10156000002E0CDD2B2804D0BAF12D0F07D144F446
:101570008074B9696D1C0E9888478246761EE00516
:1015800001D52D2100E02B2108F8011BCDF82C807E
:1015900021E00DF12901761E44F4007488450CD237
:1015A000AAF1300010F0FF0088F8000002D10B997A
:1015B000884509D908F1010806E0E00501D524486D
:1015C00001E042F20F708146B9696D1C0E988847A0
:1015D00082460F980560002E04DD50460AF006FD95
:1015E0000028D6D1F9690E988847FF208BF80000B3
:1015F00088F800000020069007904B466A4608A92C
:1016000006A8FFF777FEA00502D46FF001002AE7D5
:1016100014F0240F0AD0E00714D1DDE9061238686F
:10162000031D3B600068C0E900120BE0DDE9060124
:1016300000F01DF80146E00704D13868021D3A6049
:101640000068016028460EE7000014400000F03FEB
:10165000F1D8FFFF70470EB540F2334202920022EC
:10166000CDE900221346FFF7A4FB03B000BD01F053
:10167000004330B421F0004150EA010206D00A0DC7
:10168000A2F56072C1F31301002A02DC30BC002015
:101690007047440F44EAC104C100E01830BC00EBBD
:1016A000C250FFF711BB70B58C1810F8015B15F034
:1016B000070301D110F8013B2A1106D110F8012BC4
:1016C00003E010F8016B01F8016B5B1EF9D12B07E9
:1016D00005D40023521E0DD401F8013BFAE710F89F
:1016E000013BCB1A921C03E013F8015B01F8015B8C
:1016F000521EF9D5A142D8D3002070BDB0B51B4D04
:101700000446287840B90220FF21142802D0295429
:101710000130FAE701202870112C06D8204600F08D
:1017200013F8013004D0FE2000E0FF2040B2B0BD2D
:101730006878112801D9FD20F8E7411C28448470FD
:1017400000206970F2E700BF10B5084900224B780D
:10175000934205D08C18A478844204D00132F7E774
:101760004FF6FF7000E0D0B200B210BDA40300201D
:1017700010B5C9B201220723044606F09AF92046A3
:10178000012106F0D0F92046022106F082F9002856
:10179000F9D02046BDE8104006F0B5B9BCB5044606
:1017A0001A48012107F0ACFB022007F061FA01ADF5
:1017B000284606F04AF94FF08070294601902046ED
:1017C00006F021F920460721012206F09FF9204664
:1017D000002106F050F920462021002206F05EF993
:1017E0002046012106F050F9204606F032F9204645
:1017F00006F034F90028FAD1204606F033F92046E5
:1018000006F035F90028FAD1BCBD00BF0900180068
:1018100070B5134E0820B047044602F011F80820B6
:10182000B047054601F038FD20603420B0470DA1D7
:101830002A46002305F06EFB264646F8040F28468C
:1018400001F06AF930460121002201F01DFC30460A
:101850000221002201F018FC01F064FA204670BD5C
:10186000D5770008476C6F62616C0000BCB5051D40
:10187000044604210022284601F006FC206801F0FD
:10188000B9FC019001AA2846052101F0FDFB019851
:10189000BCBD80B509F012FD052008F0ABFFBDE826
:1018A000804000F007B800001048016821F00101F5
:1018B0000160704780B509F033FD0A484FF47A7132
:1018C0000068B0FBF1F00021421E0748B1EB126F37
:1018D00006D1064B5A60F0220270072299601A6006
:1018E000017080BD3001002023ED00E010E000E039
:1018F00080B5102007F054FF30B18748006900B16F
:101900008047102007F048FF202007F049FF30B142
:101910008148406900B18047202007F03DFF40200A
:1019200007F03EFF30B17C48806900B1804740201D
:1019300007F032FF802007F033FF30B17648C069EE
:1019400000B18047802007F027FF4FF4807007F038
:1019500027FF38B17048006A00B180474FF48070AB
:1019600007F01AFF4FF4007007F01AFF38B16A4809
:10197000406A00B180474FF4007007F00DFF4FF44C
:10198000806007F00DFF38B16348806A00B180477E
:101990004FF4806007F000FF4FF4006007F000FF95
:1019A00038B15D48C06A00B180474FF4006007F06D
:1019B000F3FE4FF4805007F0F3FE38B15648006B49
:1019C00000B180474FF4805007F0E6FE4FF400501E
:1019D00007F0E6FE38B15048406B00B180474FF445
:1019E000005007F0D9FE4FF4804007F0D9FE38B11F
:1019F0004948806B00B180474FF4804007F0CCFE2F
:101A00004FF4004007F0CCFE48B14348C06B00B132
:101A100080474FF40040BDE8804007F0BDBE80BD68
:101A200080B5012007F0BCFE30B13B48006800B132
:101A30008047012007F0B0FE022007F0B1FE40B160
:101A40003548406800B180470220BDE8804007F07B
:101A5000A3BE80BD80B5042007F0A2FE30B12E48A1
:101A6000806800B18047042007F096FE082007F048
:101A700097FE40B12848C06800B180470820BDE803
:101A8000804007F089BE80BD80B500F047F802288D
:101A90003CBF052080BD0721042838BF0621084629
:101AA00080BD00002DE9FF473F2832D899461646F1
:101AB0000C46054600F032F80F282AD8074616488B
:101AC000DDF8308001214FF0010A40F827404FF443
:101AD000C01007F015FA284600F02EF8394609F034
:101AE000C5F801AC204607F051FE00208DF80DA08E
:101AF0008DF80C608DF804000AFA07F00290204679
:101B000007F056FE2846FFF7BFFF4946424608F059
:101B100041FEBDE8FF8700BFB80300200E4901EB7E
:101B200000108089AFF30080002102283CBFC8B2BA
:101B3000704701314008F8E70749000107A209583A
:101B40000020042805D052F82030994202D00130FC
:101B5000F7E7FF20C0B270470CC90008000000483A
:101B60000004004800080048001400482DE9FC412A
:101B7000804600F138404FEAB024052C3CD80F468F
:101B8000E0B2272121FA00F0C00735D068461E4692
:101B9000154608F09BFC082D8DF8076000972BD8A0
:101BA000DFE805F00507090B2A1C0E1219000020BA
:101BB00016E0012014E0022012E04FF440700FE024
:101BC00001208DF8060003E002208DF806000120B8
:101BD000ADF8040006E04FF4007001E04FF48070AF
:101BE000ADF8050005A0012150F8240007F088F9A0
:101BF0006946404608F071FCBDE8FC811100140004
:101C0000120014001300140011001400110014003D
:101C10001600140081B078B50D460E490593097879
:101C2000814213D80CA1104E14462B4651F82020A7
:101C30000EA1304602F011FA05AA30462146009264
:101C400002F025FA0CA1304602F0E2F9BDE8784036
:101C500001B07047BD00002081DD00088CDD000868
:101C600087DD000891DD0008F80300205B25735D27
:101C70002025733A200000000D0A0000E0B5032083
:101C80004FF4E1310022012300900C4801F0C6FC22
:101C90008CBD00BF0146094802F0BAB983B018B53F
:101CA000044603A80EC003AA21460448009202F08D
:101CB000EEF9BDE8184003B0704700BFF8030020FC
:101CC00004289CBF01490870704700BFBD00002078
:101CD000094C0E4D09A200F0EFF80DA200F0ECF84F
:101CE00010A200F0E9F813A200F0E6F815A200F047
:101CF000E3F801F09BF900BF6BDD00084658584B34
:101D00002050414E4943202121210000151C00088C
:101D10004669726D776172653A20447574794379CA
:101D2000636C6500536F6674776172653A20763133
:101D30002E32000048617264776172653A20763114
:101D40002E3300004275696C642054696D653A2039
:101D50004A616E20203120323032362032313A3121
:101D6000333A3434000000007046694606F07CFBCC
:101D7000FFF7AEFF184C174E1B4FEFF3148317A25B
:101D80000320B56A2146B847336818A203202146CC
:101D9000B847736B18A203202146B847280603D51D
:101DA0000D491DA200F08BF8A80703D50A4921A20E
:101DB00000F085F8E80703D0074924A200F07FF877
:101DC000E80603D5044927A200F079F801F0FEF8EF
:101DD00001F048F900ED00E0DDDD00084354524C0D
:101DE0002030782578000000151C0008435055204D
:101DF00049442030782578004D656D4D616E6167EE
:101E000065204661756C742041646472657373204B
:101E10003078257800000000417474656D7074207E
:101E2000746F2061636365737320616464726573AA
:101E3000730000004F7065726174696F6E206E6F81
:101E400074207065726D6974746564004E6F6E2DD8
:101E500065786563757461626C6520726567696F2A
:101E60006E000000537461636B696E672065727267
:101E70006F7200000120214630472346FFF7CABE9B
:101E80000822CDE90005206804F0F5BF41463A4636
:101E900004F04CB8D0E900311846102304F0D4BF48
:101EA000204608F01BBF04F11C01221DFFF7F6BEFF
:101EB0002046324605F0E4BE032021462847032091
:101EC000FFF7A8BE016800224B694FF08041184718
:101ED0000121204609F0C1BA4FF01C10012107F082
:101EE0000FB801464FF09040012208F031BB0725A2
:101EF000A34005FA04F40C250A2970470199C1F39F
:101F00000342C1F3015141EA810102EB4101C17079
:101F10000199C1F30322C1F3023101EB810102EB0C
:101F2000410101710199019AC2F38052C27101F01D
:101F30000F02C1F3021101EB810102EB410141717A
:101F40007047206840F0400020604FF0804008F06B
:101F500079B9054620462146FEF72BBB204605F001
:101F60002CBD8568651B00EB2510C568002D7047EA
:101F70004FF000080746C0F80080686A00287047E4
:101F80000021002209F098BC01900D4614463068EB
:101F9000017A002970470099C1F30322C1F300318F
:101FA00041EA810102EB410141700099009AC2F3BC
:101FB0004232827101F00F02C1F3011141EA810145
:101FC00002EB4101817070474FF4801008F03AB97C
:101FD000A0EB470040EA0510009DC0B270474FF0EB
:101FE0007C510446FEF735BD2046294600220123D8
:101FF00007F014B80A20294608F098B9286830F884
:10200000341030F831106FF3DF3170470021C0F821
:102010000310016070474FF07E51FEF7CABA0023EB
:1020200008F07CBD216821F00101216010BD4FF056
:102030003F41FEF716BB00F0FE0002287047286003
:102040006FF080006860FF20E8610120B0BD4FF0B4
:102050008040FEF700BB0423CDE9007705F0ADBC5E
:102060004FF07C51FEF7FDBA20F00303404605F027
:1020700016BCC5B20A260024B5FBF6F5009405EBA4
:1020800085077047226842F001022260704741EAEA
:1020900000200090D0B2B0FBF6F000EB800170475A
:1020A0000146FEF7DEBA41EA00100099C0B270475F
:1020B00045EA00400090C8B2B0FBF6F000EB8005A6
:1020C000704700002DE9FE4F3F2817D8DFF858AFC2
:1020D00005460AEB0010D0F80480B8F1000F0DD0CF
:1020E0000AEB0517BC7B4CB10E4639B193462AB1B9
:1020F0002A490BFB06F00968884203D900242046D0
:10210000BDE8FE8F2846082108F084FBB889FFF758
:102110000BFD814628462F0100F046FA02465AF888
:102120000700494608F014FA404600F007FA054651
:102130004046002100F091FA40460121012700F0BD
:10214000E7F9B5FBF6F0711EB0FBFBF0013882B287
:10215000404609F045F94046002109F06BF901A815
:1021600009F006FA0E488DF80A7001904FF480705D
:10217000ADF80800601EC1B20329C0D8400001AA12
:10218000C1B2404609F07AF94046012109F0F2F95E
:102190004046012109F057F9B1E700BF30010020A6
:1021A000070100010A46034901EB00114868897BD9
:1021B00000F04ABA0CC900081CB50446684607F08E
:1021C00075F9BDF801009DF803109DF806206080A8
:1021D0009DF800006171BDF80410227100F5FA60ED
:1021E000E18020801CBD0000B0B583B26424B3FB45
:1021F000F4F303F0FC0503FB1400132D88BF6430D7
:1022000000EB9003DBB20724B3FBF4F5C5EBC50587
:102210005B1B1A4409A380070B4413F8013C1A44C2
:10222000104608BF0138032928BF104680B2B0FB12
:10223000F4F1C1EBC101401AB0BD00BF00030306B9
:10224000010406020500030580B5FFF745FE0120E5
:1022500008F0B6FB002007F00FF941F23421884264
:1022600003D1BDE8804007F07BBAFFF735FE0120BF
:1022700008F0A6FB012006F025FD002006F022FD57
:10228000032006F0DBFD012006F0CEFD07F0B8F9D3
:1022900007F066FA632040F6C31107F061F90020E9
:1022A00007F082F9142001210122032307F01AF913
:1022B0000C2000210022002307F0FEF9002041F24B
:1022C0003421BDE8804007F0E3B8082805D0202875
:1022D00005D0102807D1012002E0022000E00020F4
:1022E000B1F5007F01DB002312E0002311F5007F30
:1022F0000EDD80B50029C8BF0123C1EB432219467A
:1023000007F0A0F90138B0FA80F04309BDE8804039
:1023100018467047F8B51C4615460E460746FFF7A7
:1023200063FF034607F1300031462A46C0B207F08A
:10233000D9F801280AD1DDE906122046002300253C
:1023400007F0BAF9012808BF012500E0002528465A
:10235000F8BD00001B491C4A0020521AB0EB920F36
:1023600004D251F8203023B90130F7E7064800685D
:1023700007E0C0EB9201044A1068814284BF1160FB
:1023800008468000704700BF5404002010B5FFF7D6
:10239000E1FFFEF775FB04460A480B49081AFEF7F1
:1023A0006FFB01462046FEF78EF910BD10B50548BB
:1023B00005490C1AFFF7CEFF201A10BD014802494B
:1023C000081A7047081C0020082C002002480168E9
:1023D00001310160704700BF5804002011480168B6
:1023E00041F00101016001688907FCD5416821F0D5
:1023F00003014160416811F00C0FFBD101680A4AEA
:10240000114001600021416041F61071C1624FF43A
:10241000801101634FF41F01816004484FF0006197
:102420000160704700100240FFFFF2FE08ED00E07F
:1024300010B5C94CFFF74CFD48B1CC48C06800B19D
:10244000804720460121BDE8104009F003B810BDC7
:1024500010B5C34CFFF73CFD48B1C448006900B15A
:10246000804720460121BDE8104008F0F3BF10BDB1
:1024700010B5BC4CFFF72CFD48B1BC48406900B119
:10248000804720460121BDE8104008F0E3BF10BDA1
:1024900010B5AF4CFFF71CFD48B1B448806900B1DE
:1024A000804720460121BDE8104008F0D3BF10BD91
:1024B00010B5AA4CFFF70CFD48B1AC48006800B15C
:1024C000804720460121BDE8104008F0C3BF10BD81
:1024D00010B5A54CFFF7FCFC48B1A448406800B11A
:1024E000804720460121BDE8104008F0B3BF10BD71
:1024F00010B5984CFFF7ECFC48B19C48806800B1DF
:10250000804720460121BDE8104008F0A3BF10BD60
:1025100010B5094B0022072A08BF10BD53F83240FE
:10252000844201D00132F6E703EBC2004068BDE807
:10253000104006F0E5BC00BF0CCD0008B0B5114D51
:102540000446286810B90F4806F0F2FB864884421A
:1025500013D08048844210D07D4884420FD07F48F9
:1025600084420CD07E48844209D07E48844206D002
:10257000794884421CBF0020B0BDE868B0BDA8689F
:10258000B0BD00BF780400200139CAB2032A07D8C1
:1025900080B54900C9B208F02BFFBDE8804000E0DB
:1025A000002080B27047000010B5264901EB0010F2
:1025B000817B42686C4800F59E339A4208BF01292E
:1025C0003AD09A4208BF022936D000F5E0539A4229
:1025D00008BF012930D0824208BF01292ED0824293
:1025E00008BF02292AD0824208BF032926D082428E
:1025F00008BF042922D000F59430824208BF012987
:102600001ED0824208BF02291AD0824208BF032985
:1026100016D0504081F004042043B0FA80F04FEA15
:1026200050104FEA400006D09A4204D1481EB0FA3A
:1026300080F04009800010BD002010BD012010BDB9
:10264000022010BD0CC900080139CBB2032B88BF92
:1026500070474900C9B208F0DDBE08F0F4BEFEB50F
:10266000002714460E460546ADF80A70ADF808700E
:10267000FFF764FF8EB101460DF10A0202AB30464E
:1026800000F08EF80320BDF80820BDF80A1023469C
:10269000CDE90070284600F001F8FEBD2DE9F843B1
:1026A00004462B48DDE9089817460D46844216D0AB
:1026B0002848844216D02848844216D027488442AD
:1026C00016D02748844216D02648844216D0264881
:1026D000844218BFBDE8F8830120102610E00620D0
:1026E00016260DE0022011260AE00320132607E03B
:1026F00000200D2604E00420142601E00520152604
:102700001A4941F82030204608F044FF20460121B4
:10271000FFF7FEFE2046002108F035FF204600218D
:1027200008F088FE691E7A1E204608F059FE3046E1
:102730004946424608F02EF82046012108F08AFE5C
:10274000204601210122BDE8F84308F08BBE00BFFE
:10275000004801400010004000200040002C0140D3
:102760000040014000440140000400405C0400209F
:10277000BCB50C460546FFF7E1FE01460DF1060229
:1027800001AB204600F00CF8BDF80600411EBDF874
:102790000400421E284602B0BDE8B04008F020BE4A
:1027A00010B50F4CB1FBF4F14843C1EB0111B0EB94
:1027B000410F02D20A210A240DE00A49884205D8B5
:1027C0004FF47A71B0FBF1F10C4604E044F620615D
:1027D000B0FBF1F4A1B2B0FBF1F01480188010BD91
:1027E00040420F0017FCE7032A4800F0DDBE00BF9F
:1027F00009F0A6BA09F0B2BA2DE9F04149F6404114
:102800004FF0000800260027A0FB0145072F0FD03E
:10281000BA1C20462946FDF7AAFC4FF47A72002321
:10282000FDF774FC0646B8EB103F09D00137EDE721
:102830000024B4EB163F20D106254FF6FF770BE0BE
:10284000042028220023B840A6FB0001FDF75EFC0F
:1028500004460BA0C55D771E0B4E304606F038FBD4
:1028600010B1304606F0F6FA012009F07DFA28464C
:1028700009F06CFAB8B209F081FA2046BDE8F0819F
:1028800000010203040506001D002400014802495E
:1028900000F04CBFF80300200038014010B504469A
:1028A0000A480078BFF35F8FC00702D00848606213
:1028B00010BD064809F0A2F80028F7D004482146C8
:1028C00002F032F8014809F0C7F8EFE78C04002065
:1028D000A004002010B504460A480078BFF35F8FBB
:1028E000C00702D00848606210BD064809F086F8AB
:1028F0000028F7D00448214602F0DEF9014809F02B
:10290000ABF8EFE7900400202805002010B50C4834
:1029100000F14004102060F3040400F057FB094864
:1029200009498467C1670521BFF35F8F01670168AB
:1029300041F480310160BFF34F8FBFF36F8F10BD43
:10294000081C002024ED00E00B000006B0B5154D7A
:10295000044695F90000B0F1FF3F01DDC0B20EE082
:102960001120002107F056FF112006F0C3FB28704C
:1029700043B20DA110A20120FFF74CF9287870B1E5
:10298000062C07D0072C07D0112C07D0102C08BF1D
:10299000112404E0072402E0102400E01224204661
:1029A000B0BD00BFC400002048414C5F50696E526A
:1029B000656D61700000000056312E3120426F615C
:1029C00072642064657465637465643A20256400EC
:1029D0001CB5044601200021054BFF22CDE9001063
:1029E0002046FF21FFF75AFE024844601CBD00BF8D
:1029F000F12F00089803002070B50C4E0446307883
:102A0000BFF35F8FC00702D0301D606270BD074DFD
:102A1000284608F0F3FF0028F6D0281D214602F0D2
:102A2000B5FC284609F018F8EEE700BF4C0200207C
:102A300070B50C4E04463078BFF35F8FC00702D0EC
:102A4000301D606270BD074D284608F0D7FF002892
:102A5000F6D0281D214602F007FE284608F0FCFFAC
:102A6000EEE700BF1402002070B50C4E044630782B
:102A7000BFF35F8FC00702D0301D606270BD074D8D
:102A8000284608F0BBFF0028F6D0281D214602F09A
:102A900081FF284608F0E0FFEEE700BFE8010020D4
:102AA00070B50D4E04463078BFF35F8FC00703D07A
:102AB00006F10800606270BD074D284608F09EFFD1
:102AC0000028F5D005F10800214603F03DF928461D
:102AD00008F0C2FFECE700BF7801002070B50D4E92
:102AE0000446307BBFF35F8FC00703D006F10800B8
:102AF000606270BD06F10C05284608F07FFF0028D3
:102B0000F4D006F10800214604F09AF8284608F0AF
:102B1000A3FFEBE73C0200202DE9F04F87B004460D
:102B20003C483D490460204600F067FB3B4F3420A1
:102B3000B8473D4E3AA1224600230690B0473420C4
:102B4000B8473AA1224600230590B0473420B84741
:102B500038A1224600230490B0473420B84738A15A
:102B6000224600230390B0473420B84736A12246BE
:102B700000230290B0473420B84735A122460023F5
:102B80000190B0473420B84733A1224600230546C0
:102B9000B0473420B84733A1224600238046B047CF
:102BA0003420B84731A1224600238146B047342063
:102BB000B84730A1224600238246B0473420B847A8
:102BC0002EA1224600238346B047069800F076F8EF
:102BD0000598FFF765FF049800F08AF8039800F065
:102BE00051F80298FFF740FF0198FFF757FE28467B
:102BF00000F0F4F84046FFF71BFF4846FFF76EFF72
:102C00005046FFF767FE584607B0BDE8F04FFFF7A4
:102C1000F3BE00BF94040020D93E0008D577000819
:102C200056657273696F6E00156F0008506F776597
:102C3000720000005761746368446F670000000011
:102C4000427574746F6E0000436C6F636B0000001C
:102C50004374726C0000000054696D654D6F6E69BD
:102C6000746F7200417564696F0000005368656C91
:102C70006C0000004B56444200000000416C617241
:102C80006D00000070B50C4E04463078BFF35F8FC6
:102C9000C00702D0301D606270BD074D284608F0A5
:102CA000ADFE0028F6D0281D214604F0C9FA2846BA
:102CB00008F0D2FEEEE700BF3801002070B50B4DE2
:102CC00004462879BFF35F8FC00701D0656270BDED
:102CD0002E1D304608F092FE0028F7D028462146E7
:102CE00000F056FA304608F0B7FEEFE7D0010020BA
:102CF00070B50B4D04462879BFF35F8FC00701D034
:102D0000656270BD2E1D304608F078FE0028F7D0B1
:102D10002846214600F064FB304608F09DFEEFE7B0
:102D2000D8010020BCB5FFF731FB1049FDF799FC35
:102D3000FDF7ABFE0446FFF741FB0546FFF736FB08
:102D4000CDE900500AA110A201202346FEF762FF40
:102D500008F010FD044608F095FD009014A119A29A
:102D600001202346FEF756FFBCBD00BF0000C8424D
:102D70004D656D6F72795F44756D70537461636BEF
:102D8000496E666F00000000537461636B3A202542
:102D900064252520757365642028746F74616C3A0E
:102DA0002025642C20667265653A20256429000080
:102DB00048414C5F4D656D6F727944756D70496E19
:102DC000666F0000486561703A20667265653A205A
:102DD00025642C206D61783A2025640070B50C4E76
:102DE00004463078BFF35F8FC00702D0301D6062A9
:102DF00070BD074D284608F001FE0028F6D0281DBA
:102E0000214600F0B7FB284608F026FEEEE700BF9B
:102E100004020020F8B515460C46064600F032F8CC
:102E2000C5B1BCB1154FBC4214D87E480670681CB1
:102E30007B4EB0FA80F04FEA501030700DD005FB99
:102E400004F14FF47A70B1FBF0F04000B1F57A7FF5
:102E5000B06000D2F8BD0138B060706818B9084899
:102E6000FFF7B6FD7068B7FBF4F1FFF781FC7068FF
:102E70000121BDE8F840FFF7F0BB00BF20A107002B
:102E8000002C014070B5664D0446686810B1002101
:102E9000FFF7E3FB20460021002606F03BF96148DE
:102EA000FF212E70AE60017070BD00BFF8B501F05B
:102EB00041F80CA100F01BFB4149086038B1017AD0
:102EC00029B101684B69094901AA984710B100204E
:102ED00004B080BD01AB06480ECB18300EC00120F7
:102EE000F6E700BF466C61736800000000030C4009
:102EF000F40000207CB5324EFFF746F805D001689B
:102F00004B69314901AA984730682946224600F0AA
:102F1000B3FA7CBD10B5044608F030FC0348044900
:102F200001602046BDE8104008F02CBCB80000202D
:102F300085B700081CB5224CCDE900102068017A45
:102F4000C9B1016800224B691E4998472068017A7F
:102F500089B101684B691C4901AA98472068017A28
:102F600049B101686A464B69044998472068017A6B
:102F700009B1FEF7A7FF00981CBD00BF0002044086
:102F80007CB50F4EFFF700F80DD0016800224B69A9
:102F90000C4998473068017A29B101684B690A49A0
:102FA00001AA984730682946224600F071FA044683
:102FB0003068017A09B1FEF785FF20467CBD00BF6D
:102FC0009804002000010040000404400748BFF3BB
:102FD0005F8F016821F480310160016F21F00101F0
:102FE0000167BFF34F8FBFF36F8F704724ED00E091
:102FF0000B48017819B9816869B1013981600948C4
:103000000949007801EB00120001085892894169D2
:1030100051404161704703480078FFF733BF00BF5C
:1030200098030020BC0000200CC900081448BFF31E
:103030004F8F144A016801F4E06111430160BFF34E
:103040004F8F00BFFDE700BF0D48BFF34F8F0D4A04
:10305000016801F4E06111430160BFF34F8F00BFCD
:10306000FDE700BF0648BFF34F8F064A016801F431
:10307000E06111430160BFF34F8F00BFFDE700BF68
:103080000CED00E00400FA05E0B50068CDE900129F
:103090006946082203F0EFFE8CBD0000F0B5086918
:1030A00020281CBF6FF00100F0BDC868DFF824C104
:1030B000494A4A4B4A4C4B4D4B4E4C4F4C49C0E948
:1030C0000017C0E90265C0E90443C0E9062C0020EE
:1030D000F0BD00BF7CB5114C0B68154E0D4610A21B
:1030E000FEF7C8FE6B6813A2FEF7C4FEAB6815A21C
:1030F000FEF7C0FEEB6817A2FEF7BCFE2B6918A214
:10310000FEF7B8FE6B6919A2FEF7B4FED5E90630EA
:103110001AA2214600900120B0477CBDFED50008D0
:103120004669726D776172653A2025730000000070
:10313000151C0008536F6674776172653A20257319
:103140000000000048617264776172653A2025735F
:1031500000000000417574686F723A20257300000A
:10316000576562736974653A20257300436F6D700B
:10317000696C65723A202573000000004275696C25
:10318000642054696D653A20257320257300000082
:1031900010B588B00A460E4904461046022203F0D4
:1031A0002AFE0C48694607900B4806900B4805908C
:1031B0000B4804900B4803900B4802900B48019079
:1031C0000B480090FFF786FF204608B010BD00BFF7
:1031D000E9760008B2D50008C0D500089ED50008E1
:1031E000CCD50008F3D50008BBD50008ADD5000844
:1031F000E9D50008406800F0C1BAB0B5054640689E
:103200000C4630B9102004F0E5FA002100F0E8FA8D
:1032100068602146BDE8B04000F0A0BABCB501919D
:10322000C969044600F021F8054618B9206801A9CB
:1032300004F0EBF9B5FA85F04009BCBD0A46016817
:10324000AFF3008080B542B1081D03688B4204D003
:103250009868904203D0181DF7E7002080BD08460B
:10326000194604F0B3F9012080BD0A460168AFF3A6
:103270000080F8B50D46144604310F68AF4208D0FF
:10328000BE682046F169FCF7C7FF391D0028F4D15C
:1032900000E000263046F8BDB0B500250446456084
:1032A0000C2004F097FA2060C0E9000085602046F9
:1032B000B0BD000070B50446C069002860D0354834
:1032C000006800285CD00E4680470546207836B35B
:1032D00070B90120E2690121E560E07520702046A7
:1032E0009047E2692046072190472078002847D080
:1032F000E2692046022102269047E0686188281A88
:1033000088423DD3A07D2670D8B3A068A188281A32
:10331000884235D3E269A560204604212DE078B3C8
:103320000020E18820702069281A884206D2A08AED
:10333000E2690A210130A08220469047A07D18B1A1
:10334000E2692046052190470120618825612076A9
:103350000020A075E068281A884203D2E26920465E
:1033600009219047E269204608219047E2692046FA
:1033700006219047E26920460721BDE870401047CA
:1033800070BDE2692046032190470120A560607668
:10339000A07570BDC000002010B5044600206180FB
:1033A000C4E90700207004F108001221E380A28024
:1033B000FCF714FF204610BD80B50068017A49B1C2
:1033C000016800224B6905499847002818BF4FF053
:1033D000FF3080BD4FF0FF3080BD00BF00020040D5
:1033E000BFB50D46044600F0A5FD1BA100F07FF817
:1033F000206070B31B492846082203F0FCFC42F20F
:10340000107003902068017A51B101684B69164928
:1034100003AA98472068017AB1FA81F1490900E0CE
:103420000121124A0294019261B901684B69104965
:1034300001AA98472068017A21B1016800224B69EE
:103440000C4998470399022091FBF0F1284603F0BC
:103450007DFC204604B0B0BD5761746368446F675B
:1034600000000000ED76000800000440F37600083C
:103470000003084000010040037A1BB129B1036832
:10348000DB6818476FF0020070476FF00300704769
:10349000037A1BB129B103681B6918476FF002005A
:1034A00070476FF0030070476FF0010070476FF0D6
:1034B000010070476FF0010070477047F8B50C4687
:1034C000054600276868874228BFF8BD286850F87D
:1034D000276030688168304688470246C043C00F85
:1034E000307214B128463146A0470137EAE72DE98A
:1034F000F0414768884605460024A7420AD028685C
:1035000050F8246040467168FCF786FE01340028BC
:10351000F3D100E000263046BDE8F081C0E900129A
:1035200070477047BCB504460D46487994F90810B9
:10353000814205D001206946FEF7A2FC687920721D
:10354000A87994F90910814205D002206946FEF756
:1035500097FCA8796072BCBD80B58A68012A06D143
:1035600042680B68934202D1C968FFF7DBFF002075
:1035700080BD000010B504464FF6FF700A4620815A
:10358000216006A1104603F0A1FC606020B1206814
:103590000449012203F02FFC204610BD436C6F63E9
:1035A0006B000000F576000810B504460069202184
:1035B00008F04BFBB8B1206908F030FB218B628B1F
:1035C000013101F03F01914203D0228B2183A118E8
:1035D0000877616909B12046884720692021BDE844
:1035E000104008F02BBB10BD018B428B91420FBFE6
:1035F0004FF0FF30418B0844007F7047018B428BB6
:10360000914204BF4FF0FF307047418B428B013233
:1036100002F03F0242830844007F70472DE9FE4FCD
:103620008B46044600692F499A469146884208D045
:103630002D49884252D12D4E4FF01C0808250427F1
:1036400006E0274E4FF01B084FF480654FF40077DB
:103650002748012105F054FC3046012105F050FCBB
:1036600001AE304606F032FF45EA070031460190D0
:103670004FF0817002904FF0904006F02EFF3846D8
:10368000FEF752FAFEF72DFC2846FEF74DFAFEF73C
:1036900028FC184909EB49000A5C0844594645785A
:1036A0008378206908F0D6FA2069294608F01CFBC7
:1036B0002069012108F03BFB2069012108F02EFB65
:1036C0000C9A4046514607F065F820690A490122E4
:1036D00008F0FCFA2069012108F0A7FABDE8FE8F86
:1036E0000E001800003801400044004011001C008A
:1036F0001100140044CD000805000C00418B01832B
:103700007047B0B50C4605462869802108F09DFA3F
:103710000028F9D02869214608F083FA0120B0BDBD
:10372000018B408B081A00F03F00704710B50A4B20
:10373000044600204FF47A722083C4E90410C4E9DF
:10374000022040210833C4E90030608304F11C00EA
:10375000FCF744FD204610BD8CCD00080160704789
:10376000E0B50191043001A903F0ADFF8CBDE0B5D7
:103770000191043001A903F059FF8CBD2DE9F041FE
:10378000044654F8080F261FB04210D0D0E9017546
:10379000284603F09DFD00283846F5D028680068CB
:1037A000804769682861284688473846ECE74FF02B
:1037B000FF382468B44210D0A768387D58B93868FB
:1037C0003D6900688047F968401B081A38BF00202F
:1037D000404538BF80460434EBE74046BDE8F08101
:1037E000031D0022C0E90013C0E902327047000047
:1037F00080B503A005A107A205F0E0F8002080BD78
:10380000447574794379636C6500000076312E331A
:103810000000000076312E32204A616E20203120D7
:10382000323032362032313A31333A34340000000B
:1038300003F0CDBF10B5044600F04EFB001B10BDD9
:1038400010B5FEF71BFA0B4C0BA201202146FEF728
:10385000E1F9FFF75BF800F06DFB09480949043016
:10386000FFF72CFE08A201202146BDE81040FEF71C
:10387000D1B900BF57DD0008626567696E000000BE
:103880001803002001770008656E640011480021CC
:10389000FEF7E3BE10B50F4C4FF47A70414320465B
:1038A000FEF766FF2046002107F0D2FD20460121E9
:1038B00007F069FE20460121BDE81040FEF7CDBEAD
:1038C00080B5FDF7F1FF0348034A0121FEF7C7FE6B
:1038D000002080BD000400405577000880B5A9484D
:1038E000814209D0064881421CBF6FF0040080BDB0
:1038F0001168FFF7CFFF01E0FFF7C8FF002080BD90
:103900000000044003F063BFF0B58BB0FEF79CFCF1
:1039100007A800F04BF89DF820209DF81E009DF8A8
:103920001F10BDF81C30062A9ABF0C4C54F82220F8
:10393000094A9DF822509DF82360BDF824709DF837
:1039400021408DE8F70006A107A20120FEF762F9E9
:1039500000200BB0F0BD00BFADDD000824CF000893
:103960006F6E496E6974000054696D653A202530A8
:1039700034642D253032642D2530326420257320A7
:10398000253032643A253032643A253032642E25AF
:10399000640000000E2A1CBF6FF00300704780B562
:1039A000084600F003F80E2080BD0000BCB50446B8
:1039B0000020A081A060606020606846FEF7FCFBEC
:1039C00000989DF8041020609DF805006071BDF816
:1039D0000600E0800720B1FBF0F0A0EBC000084437
:1039E0002071074805686FF3DF3505F05FFE281A80
:1039F0004FF47A714843B0FBF5F02081BCBD00BFA5
:103A000010280040044881421CBF6FF0040070473A
:103A1000114600F003B800BF00000E407CB50888D6
:103A20000C4648B1A178E2786379A579E679CDE9C9
:103A30000056FEF76FFC80B16089B0B1B4F90C108C
:103A4000FEF743FCB0B9B4F90C0063890A490FA230
:103A500000900320FEF7DEF804E0074907A20320E8
:103A6000FEF7D8F84FF0FF307CBD034916A20120C5
:103A7000FEF7D0F800207CBDB1DD0008536574204E
:103A800074696D65206661696C65640053657420B6
:103A900063616C6962726174696F6E206661696CE2
:103AA00065643A20706572696F64202564207365CF
:103AB000636F6E64732C206F666673657420256473
:103AC00020636C6F636B730063616C506572696F28
:103AD0006453656320697320302C20736B697020F8
:103AE00063616C6962726174696F6E206461746194
:103AF0000000000003F06BBE0020704710B51446B4
:103B00000A46C1688069014410462246FCF73FFB23
:103B1000204610BD70B504461948814214D0E448CF
:103B2000814218D01848814227D01848814215D0C8
:103B3000174881421FD0B1F1804F1CBF6FF00400C5
:103B400070BD06F065FB18E0104604F10C010C2274
:103B5000FCF71DFB11E006F093FB0EE01068E16836
:103B6000A26955182E18B54207D2284606F078FBF0
:103B700060690544F7E71068A061002070BD00BFD0
:103B800000030C400001004000050040000204401A
:103B900000040440F8B50D46C1688069144600274A
:103BA0004618BC4204BF2046F8BDE95DF01906F096
:103BB00025FB0137F5E703F00ABE10B521EAE170F5
:103BC0000C4681B2022004F04BF8604200EAE47037
:103BD00081B20320BDE8104004F042B880B5022055
:103BE000092106F017FE0320092106F013FE00202C
:103BF00080BD042A1CBF6FF00300704710B50C464F
:103C000000F01AF82060042010BD042A1CBF6FF0D9
:103C10000300704780B50968FFF7CFFF042080BD1F
:103C200080B5044800EB01114868897BFEF7ACFCC5
:103C300080BD00BF0CC9000880B50221FFF7F0FF6E
:103C4000002800DD80BD0321FFF7EAFF404280BD70
:103C500003F0BDBD80B50620FEF778FE052106F015
:103C6000D9FD012100F04EF8002080BDB0B5074C11
:103C7000656805F08DF9064872B60460206880F327
:103C8000088862B62846BDE8B040004700E4FF1F40
:103C900008ED00E010B501F140404FEA3020032864
:103CA00007D80FF20601DFE800F00207161130BF57
:103CB0000EE06FF004040CE00A490FA20220FDF7A9
:103CC000A9FF0021002400F01DF802E0FFF7CEFF5D
:103CD0000024204610BD034903A20220FDF79AFFED
:103CE000FFF7B2F997DD00085265626F6F74696E75
:103CF000672E2E2E00000000506F776572206F66D1
:103D00006621000010B506200C46FEF71FFE214676
:103D1000BDE8104005F0FEB903F059BD80B507209D
:103D2000FEF714FE012106F075FD0720FEF70EFEDA
:103D30000249012204F060FA002080BD5977000892
:103D4000082A1CBF6FF00300704780B500F002F82E
:103D5000082080BD10B50A480C4600210068C4E95F
:103D600000100720FEF7F2FD05F0C4F92178B0FA43
:103D700080F0400901F0FE010844207010BD00BF32
:103D80009C04002003F023BD80B51120FEF7DEFD6A
:103D9000052106F03FFD002080BD082A1CBF6FF002
:103DA0000300704710B511200C46FEF7CFFDD4E993
:103DB0000012FFF72FF8082010BD03F008BD000027
:103DC0001FB504461020FEF7C1FD032106F022FDB9
:103DD0000B48FDF7E3FC20680622C36802A92046D1
:103DE00098479DF80A00BDF8083006A107A2009088
:103DF0000120FDF70FFF00F05DF8002004B010BDBA
:103E0000002401406F6E496E69740000766F6C7417
:103E10006167653A2025646D562C206C6576656C6B
:103E20003A20256425250000062A1CBF6FF00300F8
:103E3000704710B510200C46FEF788FD03F0FEFE1B
:103E4000012141F20402A4F803104FF42F6148430A
:103E500040F6FF71B0FBF1F04100218089B2914240
:103E600038BF420090B240F61C41884298BF0A46D3
:103E7000054990B2642200FB02104FF47A7190FB66
:103E8000F1F0A070062010BD1045FBFF80B55B4827
:103E9000814209D0B1F1804F1CBF6FF0040080BD9A
:103EA0000A48FDF77BFC01E000F004F8002080BD2B
:103EB0000001004080B50548002103F0E5FD0448FD
:103EC0000021BDE8804005F01BB800BF0024014080
:103ED0000900180003F07BBCBFB56846FFF766FD1C
:103EE0009DF805304FF461609DF80210BDF8005058
:103EF0009DF803209DF80640584340F26D13C1EB36
:103F000001116B4303EB4101114440F2A3225143E1
:103F1000BDF8082000EBC110C4EB041100EB8100D8
:103F20009DF8071008444FF47A7100FB012004B09B
:103F3000B0BD000070B50E4E3078BFF35F8FC00784
:103F400001D0301D70BD0A4C204607F057FD0028F7
:103F5000F7D0251D07490B222846FFF7DFFA064850
:103F6000064A2946FCF720FB204607F075FDE8E7E6
:103F700018030020C80000202335000800000008B6
:103F800000207047F8B50D4E14460D460027BC4280
:103F90000AD03046FFF7C4FB28B13046FFF72EFBAE
:103FA000E8550137F3E73C462046F8BD10B5034815
:103FB000144600F040F8204610BD00BFF803002072
:103FC00003F005BC0020704780B50C4881420DD03D
:103FD0000B4881420DD00B4881421CBF6FF003009B
:103FE00080BD1068BDE88040FEF706BCFEF702FC0D
:103FF00001E0FEF7FDFB002080BD00BF0001004096
:10400000000200400000044003F0E1BB00207047C4
:10401000AFF3008069B1B0B5054608460C46FCF721
:10402000F4F802462868214643682846BDE8B040B7
:10403000184700207047F8B514460D46064600277D
:10404000BC4208D03068E95D02683046904708B14C
:104050000137F5E73C462046F8BD82B070B5A2B006
:10406000CDE9262326AB0C4605468021019302AEFE
:104070002246304607F0C4FE044628463146FFF784
:10408000C9FF204622B0BDE8704002B0704770B54D
:10409000A0B06D4613460A4604468021284607F024
:1040A000AFFE064620462946FFF7B4FF304620B053
:1040B00070BD0000F8B50D46002901D4192D08D3B4
:1040C00018491CA203202B46FDF7A4FD6FF0060043
:1040D000F8BD1446064612F57A7F07DA14F5004F4C
:1040E00007D01049104A03202346EDE7B4F57A7F44
:1040F000F7DC0C490D4A01202B460094FDF78AFDA0
:1041000006F12007304627F8154000F045F9084928
:1041100006F110003A46322301B0BDE8F04002F04B
:1041200061BF00BFA1D6000807D6000860D600080E
:10413000ADD60008496E76616C696420686F75724F
:104140003A20256400000000F0B587B0044690F8DE
:10415000540000071CBF07B0F0BD4E798F794FF4B3
:10416000616591F802C0CA780B88C879B1F808E097
:104170007543C7EB0711CDE900C2104ACDE9040E23
:10418000CDE9026705EB81010D1808A10020069515
:10419000FDF740FD2046294600F014FA014620466E
:1041A000002207B0BDE8F04000F06AB86F6E436CC3
:1041B0006F636B4576656E74000000001FD60008C3
:1041C0001CB5182A144698BF192B07D300930BA1CE
:1041D0000EA20320FDF751FE00201CBD203030F957
:1041E000142030F91300CDE900204FF4616004FB86
:1041F00000F2434300F070FB1CBD00BF74696D65A5
:104200007374616D704D617000000000496E7661DD
:104210006C696420686F75723A2025642C202564CF
:10422000000000004968062903D0012907D100F0E9
:1042300005B990F8541001F0F00180F8541070475F
:10424000B0B504460868022818BFB0BD04F11005D7
:10425000094904F120023223284602F0B5FE07493D
:1042600004F153022846012302F0AEFE2046BDE8C9
:10427000B04000F091B800BFADD600086DD6000880
:104280002DE9F04116460D46044600F073F8074646
:10429000A84200D1A6BB04F1580866B140460021EF
:1042A00005F07CF8206802F00CFE20462946BDE8A7
:1042B000F04100F093B8404605F042F800B3E81B27
:1042C00048BF4042FCF7D3FB0E49FCF7CAF9FCF7A4
:1042D000DCFB1E2898BF1E20A4F874003846FCF7AB
:1042E000C6FB06462846FCF7C2FB0246404631465E
:1042F00005F030F820683C21BDE8F04102F026BD11
:10430000BDE8F0819A99193E10B5044690F8540022
:1043100000F00F00012816D194F85200042806D3AB
:104320000BA10FA20120BDE81040FDF773BC06A150
:10433000002231F910102046FFF7A2FF94F8520036
:10434000013084F8520010BD0000E80318FC0000A2
:104350006F6E4D6F746F7246696E69736865640045
:10436000537765657020746573742066696E697330
:10437000686564001CB5806900240194017A41B12C
:1043800001680422CB6801A998470199042808BF55
:104390000C4620461CBD0000F8B50F4E00F120076A
:1043A000002408A5192C08BFF8BD37F9140010F532
:1043B000004F05D00090012029463246FDF75DFDF3
:1043C0000134EFE76C697374486F75724D6F746FE9
:1043D000724D61700000000060D60008BCB50C464C
:1043E00001911149054611A20020FDF746FD14F583
:1043F0007A7F02DBB4F57A7F07DD0B490E4A032092
:10440000FDF73BFD6FF00600BCBDA869017A0029ED
:10441000F8D0016804220B6901A99847043818BF35
:104420006FF00600BCBD00BFBBD6000876616C759E
:10443000653A20256400000007D60008BFB5044691
:10444000C06998B194F8541001F0F001033184F878
:104450005410017A31B1016800224B694FF080415C
:10446000984758B1374949A2032002E035494FA285
:10447000022004B0BDE8B040FDF7CCBBE069017A92
:1044800041B301680622CB6802A99847062821D1CA
:104490009DF80A00BDF808302A492BA2009001209F
:1044A000FDF7B8FB94F85300012819D0B0BB2E4D8E
:1044B0002879BFF35F8FC00739D02B689DF80A10A9
:1044C0008B421AD944F250600022CDE900201A46EE
:1044D000002318E01B4926A20320FDF79BFBBFBD6C
:1044E0009DF80A204FF458701146002A18BF414326
:1044F0001C48642A28BF411C08E01A4844F2506254
:10450000CDE90020642200F0E7F90146204600F0E2
:1045100059F8014620460022FFF7B2FEE069017A11
:1045200021B1016800224B6910499847BFBD281D81
:1045300007F064FA0028C0D01421284602C007F012
:104540008BFABAE77AD60008766F6C746167653AC1
:104550002025646D562C206C6576656C3A202564A8
:10456000252500007F510100E001002000010040EE
:104570004661696C656420746F20726561642062B5
:1045800061747465727920696E666F004661696C4A
:10459000656420746F2077616B657570206261744B
:1045A0007465727920646576696365004E6F206278
:1045B0006174746572792064657669636520666FDD
:1045C000756E6400FEB5044690F853000D46012850
:1045D0000CD0002850D144F25060281A4009E0283D
:1045E0000CD820462946052207235EE0484885422C
:1045F0000FDD204629461822182356E046F2702087
:10460000281A4009E02839D82046294607220923DC
:104610004BE04FF4616095FBF0F31E46002E07D48B
:1046200004EB4600008CB0F5004F03D1013EF5E7E6
:104630004FF0FF361846471C182F15D804EB4000E2
:10464000408CB0F5004F3846F5D0B6F1FF3F0BDD9A
:10465000304931A20020CDE90067FDF7DBFA2046A2
:10466000294632463B4620E02A4936A20320FDF780
:10467000D1FA2046FFF790FE0020FEBD47F690607D
:1046800042F62F21281A884204D8204629460922BA
:104690000C230AE04AF6C00047F68F61281A8842C8
:1046A00008D8204629460C22152303B0BDE8F04067
:1046B000FFF786BD2E48291842F62F2081420BD8DD
:1046C0002C4AB4F94A009542D7DBB4F92020121ADB
:1046D000514342F6302217E02809E02804D820464A
:1046E000294600220123E0E7A5F561618809E02859
:1046F000C2D8B4F92200B5F5616FBEDDB4F950201F
:10470000121A51434FF4615291FBF2F10844FEBD7D
:104710007F5101008BD6000863757272656E744814
:104720006F75723A2025642C2070726576486F751B
:10473000723A2025642C206E657874486F75723A41
:104740002025640063757272656E74486F75723AE5
:10475000202564206E6F7420666F756E6420696E0C
:1047600020686F75724D6F746F724D61700000003C
:10477000B0D8FEFF5127010080B58A68082A14D0FE
:10478000042A15D0012A1CBF6FF0020080BD0A6800
:1047900083689A4217D043689A4218D0C3689A42F5
:1047A00018D1C968FFF73EFD14E000F015F811E0DC
:1047B0000A69142A1CBF6FF0010080BDC968BDE8FA
:1047C000804000F043B8C968FFF73AFD02E0C968CD
:1047D000FFF7BAFC002080BD70B500F15806044612
:1047E000304604F0DFFD304604F086FDFCF74DF95D
:1047F000054620462946FFF7F1FD18B13046002155
:1048000004F0CCFD304604F09BFD68B1206802F056
:1048100058FB2046FFF778FD04A106A201202B4695
:10482000BDE87040FDF7F6B970BD00BF6F6E54690A
:104830006D6572004D6F746F722076616C756520C6
:10484000726561636865643A2025640010B50346AB
:1048500008680138062884BF6FF0020010BDDFE849
:1048600000F004080F1320283400184600F04DF81B
:104870002EE093F8540000F0F00083F8540027E095
:104880001846FFF789FD23E093F8540000F0F0008C
:10489000023083F8540018460A7CC968FFF7F0FC20
:1048A00016E0D1E9024218462146BDE81040FFF764
:1048B00001BC0879074903F8530FA3F143001A46D6
:1048C0000123BDE8104002F08DBB1846FFF7B6FD8E
:1048D000002010BD6DD6000810B5DDE902409342FE
:1048E0000DDA934203DC994208DD91420BDA891A12
:1048F000001B4843991A90FBF1F0204410BD9942E7
:10490000FCDA9142EDDC204610BD0021002280F847
:10491000521090F8541001F0F001013180F8541059
:104920000021FFF7ADBC00001CB50446016010304B
:1049300002F062FB00204FF40041A4F8520094F80A
:10494000540000F0F00084F854001020292803D00F
:1049500024F810100130F9E7FFF7ECFA17A1FEF781
:10496000C6FDA06140B3FFF7E5FA16A1FEF7BFFD53
:10497000E061206815A102F0A9FA6060E0B120684A
:1049800014A102F0A3FAA060206814A102F09EFA1C
:10499000E06000203C21134A0023CDE9001004F11F
:1049A0005800002104F0AEFC0F4804F0CFFC206852
:1049B0000E490D2202F01FFA20461CBD4D6F746F88
:1049C000720000004261747465727900436C6F6319
:1049D0006B000000476C6F62616C0000427574747C
:1049E0006F6E0000E1770008D93E00086977000883
:1049F00070B588B00C468968054691B1E268666872
:104A000003A805F025F902462846314605F07AF953
:104A1000E16888420BD06368CDE900010A490BA226
:104A20000AE06168284605F04DF9A06008B1002051
:104A300007E06368044913A20320FDF7EBF86FF069
:104A4000040008B070BD00BFC9DA00086B657920AA
:104A50002725732720646174612073697A65206D4E
:104A600069736D617463683A2073697A653A256485
:104A700020213D20696E666F2D3E73697A653A2567
:104A8000640000006B65792027257327206E6F7402
:104A900020666F756E6400002DE9F04F9BB00446F0
:104AA000086805280AD8DFE800F0030C13202F83DC
:104AB00020461BB0BDE8F04FFFF79ABF6FF0020031
:104AC00084E0D1E901322046194605F09BF910E057
:104AD000D1E90153CA686846194605F0B9F802469B
:104AE0002046294605F0A8F903E04968204605F06C
:104AF000D5F80346002859D03749634A0320FDF70B
:104B000089F86FF0040061E06D462046294605F003
:104B10006FF9314E31A201203146FDF77BF8DFF805
:104B2000D0B005F1100700250FF224180FF230194C
:104B30000FF2401A2046694605F013F9B0B3012080
:104B4000314629A22B46D8470120314629A23B46AF
:104B5000D8479DF80030012031462AA2D8479DF859
:104B60000130012031462BA2D8479DF802300120A8
:104B700031462CA2D847019B012031462DA2D847AF
:104B8000029B012031462FA2D847039B01203146CA
:104B90004246D847149B012031464A46D847159BC8
:104BA000012031465246D8470135C3E700200DE0C9
:104BB000D4F86C03017A0029A3D0016800224B6964
:104BC00004499847002818BF6FF004001BB0BDE8E7
:104BD000F08F00BF00050040CFDA00084B65792058
:104BE0006C6973743A0000005B25645D3A00000054
:104BF000151C0008096E616D65203D20272573276F
:104C00000000000009737461747573203D202564F1
:104C100000000000096372635F69735F6F6B203D82
:104C200020256400096E616D655F6C656E203D2016
:104C300025640000096D61676963203D2030782597
:104C400075000000096C656E203D202564000000A1
:104C50000976616C75655F6C656E203D202564008A
:104C600009616464722E7374617274203D2030781F
:104C70002575000009616464722E76616C7565208B
:104C80003D20307825750000BADA00088A68022ACB
:104C900009D0042A1CBF002070470A69102A08D1D5
:104CA000C968FFF7F9BE0A69102A02D1C968FFF77F
:104CB0009FBE6FF0010070477CB500260D4604468C
:104CC000C0F86C63FFF736F910A1FEF710FCC4F8CA
:104CD0006C03C0B120464FF45B71FBF77FFA0DA166
:104CE0000EA220460023009605F05AF930B1034683
:104CF0000DA10FA20320FCF78DFF04E01249284606
:104D0000072202F078F820467CBD00BF466C617334
:104D100068000000636F6E66696700006664625F2A
:104D20006B7664620000000044505F4B56444200C2
:104D30006664625F6B7664625F696E697420657237
:104D4000726F723A202564006F770008FEB5124D2D
:104D5000436B044611A201202946FCF75BFF0026A5
:104D600015A7042E08BFFEBD06EB4600204490F9AF
:104D7000381000290DD490F9392090F93A00C9B2C1
:104D80003346CDE900120290012029463A46FCF74D
:104D900041FF0136E5E700BF13DB0008486F75727D
:104DA0006C7920616C61726D2066696C7465723A11
:104DB0002030782530385800416C61726D202564B0
:104DC0003A20253032643A253032642C204D7573F8
:104DD00069632049443A202564000000B0B54FF0D3
:104DE000FF3201464FF6FF73002441F8102B0422D6
:104DF000851883520332AC7003358D42F8D1B0BDB3
:104E0000B0B504460868022818BFB0BD04F10C050F
:104E10000A4904F134021023284602F0D5F820464E
:104E2000FFF794FF064904F144022846322302F0BA
:104E3000CBF82046BDE8B04000F080B8F5DA0008B5
:104E400001DB0008E0B50B46416B21FA03F2D20703
:104E500004D01946BDE88C4000F046B9009103A18A
:104E600006A20220FCF7D6FE8CBD00BF6F6E486F15
:104E700075724368616E676564000000686F7572E3
:104E80003A202564206973206E6F7420696E206655
:104E9000696C7465723A203078253038582C20734C
:104EA0006B6970001CB58B69002B26D4082B09D3C5
:104EB000082016A119A200900320FCF7ABFE6FF0AA
:104EC00006001CBDCA69002A05D403EB430400EBAD
:104ED0004404A4F844200A6A002A05D403EB4304DE
:104EE00000EB4404A4F846204A6A002A05D403EBE8
:104EF000430300EB4303A3F84820896A002901D447
:104F0000A0F8741000F01AF800201CBD73657441FD
:104F10006C61726D4D75736963000000696E646544
:104F2000783A202564206F7574206F662072616E58
:104F300067653A20307E2564000000002DE9FF41BE
:104F40000F4E804600F1440400250EA7082D0DD019
:104F500020886188A2882B468DE807000120314611
:104F60003A46FCF757FE06340135EFE7B8F87430DF
:104F700003490FA2012004B0BDE8F041FCF74ABE8E
:104F8000D5DA00085B25645D3A20256420487A2C38
:104F9000206475726174696F6E3A202564206D73A8
:104FA0002C2074696D653A202564206D7300000023
:104FB00062706D3A2025640010B58AB00B4618491E
:104FC000079118490691184905911849049107213C
:104FD0000391174902910821ADF82410B0F874101C
:104FE000002BADF8261000F14401089101D4042BE8
:104FF00007D310A113A20320FCF70CFE6FF00600EC
:105000000BE002AA0124143052F8331002EBC30261
:105010000094D388928801F0FFFF0AB010BD00BF52
:10502000120032007CCF00080A00280040CF0008A0
:10503000E8CF0008706C6179416C61726D4D7573D9
:1050400069630000496E76616C6964206D757369EF
:10505000632049443A20256400000000BFB504469F
:105060000023042B08BFBFBD03EB4300251895F9AF
:105070003800002805D4884203D195F939009042C0
:1050800001D00133EDE795F93A00CDE9001207A10F
:105090000AA202900120FCF7BDFD95F93A102046C6
:1050A00004B0BDE8B040FFF787BF00BF6F6E4D6929
:1050B0006E7574654368616E676564004D61746305
:1050C00068656420616C61726D2025643A2025302A
:1050D00032643A253032642C204D7573696320495F
:1050E000443A202564000000BCB50B46002901D4D9
:1050F000182B07DB8C4A16A10320FCF78BFD6FF001
:105100000600BCBD01466FF00100104A00EA9300A2
:1051100003F00703145A104432F81350408821F862
:105120001C4FBB24888102EB43008C824D82CC81D2
:105130000C814C80042200234088C880012000900C
:10514000A1F1080001F068FFBCBD00BF12D000084B
:10515000706C6179416C61726D486F75726C794DDC
:10516000757369630000000080B58A68042A0FD057
:10517000012A1CBF6FF0020080BD0A6843689A4292
:1051800011D083689A421ED1C968FFF739FE1AE030
:105190000A692C2A1CBF6FF0010080BDC968BDE8F8
:1051A000804000F013B8C9680A68022A06D0012AB4
:1051B00009D149684979FFF745FE04E04A68517909
:1051C0009279FFF74BFF002080BD0000F8B5044640
:1051D00008680138092884BF6FF00200F8BD0D4649
:1051E000DFE800F0051216242A2E3A454B516B6871
:1051F000002B01D4042B4DD33C4956A20320FCF7CD
:1052000009FD6FF00600F8BD2046FFF79FFD21E085
:105210006B6936493BA2012044F8343FFCF7FAFCA5
:105220004049A4F12800224610231BE020462946CD
:10523000BDE8F840FFF736BE2046FFF77FFE09E0E5
:1052400004F144003221FAF7C9FF284928A20120BD
:10525000FCF7E0FC0020F8BD234904F10C0004F148
:105260004402322301B0BDE8F04001F0BBBE296921
:105270002046BDE8F840FFF79FBEA9682046BDE87C
:10528000F840FFF731BFD5E907122046BDE8F840E6
:1052900000F06CB8AE68701C192809D2EF68002FB6
:1052A00001D43C2F09DB114925A203203B46A6E788
:1052B0000E491D4A03203346A1E7B6F1FF3F06DC45
:1052C0000A491AA20120FCF7A5FC2F1DC8CF03EB49
:1052D000430004F134022969104481711149477176
:1052E000067104F10C009FE701DB00081EDB0008DB
:1052F000416C61726D206D7573696320636C6561CB
:105300007265640053657420686F75726C792061F2
:105310006C61726D2066696C7465723A2030782514
:1053200030385800F5DA0008E4DA0008446973619F
:10533000626C6520616C61726D2025640000000064
:10534000496E76616C6964206D696E7574653A208A
:1053500025640000496E76616C696420616C61723D
:105360006D2049443A20256400000000E0B5034662
:10537000012023F81C1F5A800090A3F10800194651
:105380000122002301F048FE8CBD0000B0B50446A8
:1053900001600C300D4601F02FFE04F11400294687
:1053A00001F04EFE04F11C001821FAF717FF04F17A
:1053B0003400FFF713FD04F144003221FAF70EFF29
:1053C000206808A101F082FD606048B1206808A152
:1053D00001F07CFDA06020680749052201F00BFD6B
:1053E0002046B0BD54696D654D6F6E69746F720073
:1053F000476C6F62616C000075770008E0B58068EB
:10540000CDE90012017A21B1016808220B696946D1
:1054100098478CBD80B549680A290AD190F82010B8
:1054200009A281F0010304A180F820300120FCF7DB
:10543000F1FB002080BD00BF6F6E427574746F6E0B
:105440004576656E74000000536574206D75746553
:105450003A2025640000000010B5C368044609A185
:105460000AA20120FCF7D6FB0020C4E90300206853
:1054700001F027FD204600210022BDE81040FFF783
:10548000BDBF00BF73746F70000000004175646998
:105490006F2073746F703A2025700000BFB504460A
:1054A00090F8200048B11E491EA20220FCF7B2FB72
:1054B0006FF00204204604B0B0BD886800B32046F7
:1054C00050F80C2F0AB1227E3AB30022E26191E833
:1054D0002C0080E82C00097B0173E368C3B12069CC
:1054E000B0B16169227E8DE8070001200C491DA240
:1054F000FCF790FB20680021002401F027FCD9E78D
:10550000074926A20320FCF785FB6FF00604D1E7CC
:105510002046FFF7A1FF0024CCE7014908A2C4E719
:105520005CD70008417564696F206973206D7574DC
:1055300065642C2063616E277420706C61790000B3
:10554000417564696F20697320706C6179696E6759
:105550002C2063616E277420696E74657272757099
:1055600074000000417564696F2073746172743A4D
:105570002025702C206C656E6774683A2025642C99
:105580002062706D3A2025642C20696E74657272F9
:1055900075707469626C653A2025640062706D20D4
:1055A0006E656564203E20300000000010B50246A4
:1055B0008868431E0020072B24D8DFE803F0040D81
:1055C00023172323231F50680B68834219D1C9680E
:1055D0001046FFF71FFF14E00869102813D1C868B0
:1055E00002F10C011022FAF7D2FD0AE00869102836
:1055F00009D1C9681046FFF751FF02E0104600F0DC
:1056000005F8002010BD6FF0010010BDB0B50446D4
:105610000169C069884222D2E268411C00EB400067
:105620006369E16102EB400532F81010688800EB15
:1056300080000001B0FBF3F22046FFF7DFFEA888F0
:105640006988884288BF014601EB810062690101D7
:105650002068B1FBF2F1BDE8B04001F0C0BB2046CC
:10566000BDE8B040FFF7F8BE7FB504460020012535
:10567000502684F82000E0612576C4E903006661C5
:105680002160FEF757FC0EA1FDF731FFA060A0B12D
:1056900020680DA101F01AFC606020680C490F22FF
:1056A00001F0A9FB032069468DF80C500296019089
:1056B000084800902046FFF7F1FE204604B070BD78
:1056C00042757A7A65720000427574746F6E0000DC
:1056D0007B77000824D00008B0B586B0054608687E
:1056E000022829D105F108041D4905F114020223FD
:1056F000204601F069FC1B4905F1160220460223F1
:1057000001F062FCAB8A002433B32869ADF8104085
:10571000E98ACDE90244ADF81230027AADF81410EE
:1057200062B101684B69104902AA9847BDF814108C
:10573000BDF81230044603E000240DE06FF00204CF
:1057400008B20E4A09A1CDE900040120FCF762FA73
:10575000002C18BF6FF00404204606B0B0BD00BF97
:105760001ED7000849D7000800000E406F6E476C36
:105770006F62616C4576656E74000000D4D60008D7
:105780002DE9F0418CB080462548304E25A12BA252
:10579000009001203346FCF73DFA0AA82CA10090A6
:1057A00009AD0BAB30462A46FAF776FD00272BA44D
:1057B00000260C2F07D054F827102846FAF72CFDA6
:1057C00018B10137F5E7002500E07D1C06A82FA1E0
:1057D0000090134808AA07ABFAF75EFD0A980396F3
:1057E000ADF8146004968DF80A50ADF808000B98D7
:1057F0008DF80B0008988DF80D0007988DF80E00B5
:1058000006988DF80F00D8F81000017A21B10168D0
:105810004B695D4902AA98470CB0BDE8F08100BF12
:10582000B2D50008736574436F6D70696C65546917
:105830006D65546F436C6F636B0000004275696C5B
:10584000643A20257320257300000000C0D50008AD
:1058500025337320256420256400000031D700081B
:10586000CCD600083DD7000841D7000858D700081B
:1058700035D700082DD7000829D7000839D70008E8
:1058800045D7000854D70008D0D6000825643A252B
:10589000643A2564000000001FB504468868421E73
:1058A0004FF0FF30072A36D8DFE802F0040B351638
:1058B0003535352060680A6882422ED04FF0FF30BF
:1058C00029E0D1E9033220691946FDF7D5FD0E38EC
:1058D00018BF6FF004001EE00869142819D1C968C8
:1058E000204604B0BDE8104000F01EB82069017ADF
:1058F00061B101680E22CB68694698470E2805D130
:10590000206869460E2201F0B6FA04E06FF0040048
:1059100001E06FF0010004B010BDC968204604B07A
:10592000BDE81040FFF7D8BE70B5044608680128EE
:105930000AD120690E46017A49B10168321D4B69CE
:1059400011499847054604E06FF002051AE06FF030
:105950000205F08990B1318A022324F8161F0B4901
:105960002246A4F10E0622F8020D304601F03AFB61
:10597000074930462246022301F034FB002D18BFB0
:105980006FF00405284670BD00000E401ED70008C9
:1059900049D70008B0B50446016008300D4601F053
:1059A0002BFB0020C4E90400FEF7C4FA0CA1FDF7AC
:1059B0009EFD206190B120680BA101F087FA606024
:1059C0002046FFF7DDFE206809494FF0FF3201F065
:1059D00012FA28464FF4FA6101F0B8F92046B0BD3A
:1059E000436C6F636B000000476C6F62616C00007A
:1059F000817700081CB50146044651F8200F0228A3
:105A00000FD1204926A20220FCF704F96069017A2F
:105A100099B3016800224B69264902B0BDE81040E5
:105A20001847022020222062206801F024FA083062
:105A300007D1144914A2022002B0BDE81040FCF7BF
:105A4000E9B8A069017A21B1016800224B690B49CC
:105A500098476069017A21B1016800224B690749C2
:105A6000984754F80C0B01F02CFA0120044903224A
:105A700000230090204601F0CFFA1CBD0001004039
:105A800036D000087CD5000853746F702073687599
:105A900074646F776E2070726F63657373000000BB
:105AA000476F20746F20495350206D6F64652E2E10
:105AB0002E0000000003004010B50446C06A012813
:105AC00014DBE06C90B9606CFDF7B4FEE36A4FF450
:105AD0007A715943884209D905A109A20220FCF72D
