:020000040800F2
:10000000882C0020E9000008F1000008691D0008A4
:10001000751D0008F7000008F90000080000000046
:10002000000000000000000000000000FB000008CD
:10003000FD00000800000000FF000008D1230008B8
:100040000301000803010008030100080301000880
:1000500003010008211A0008551A0008F1180008C9
:10006000000000000301000803010008030100086C
:1000700003010008B5240008030100080000000087
:10008000D5240008F52400080000000035240008ED
:100090005524000875240008952400080301000871
:1000A000030100080301000803010008ED27000810
:1000B0000301000800000000000000000000000034
:1000C000030100080000000003010008DFF814D05D
:1000D00000F0EEFE00F058FA0048004765A900085D
:1000E00001F0E6F8882C00200648804706480047C3
:1000F000FEE7FEE7FEE7FEE7FEE7FEE7FEE7FEE7D8
:10010000FEE7FEE7E1230008CD0000082DE9F05FDF
:100110000546002092469B46884606468146402476
:100120001BE0284641464746224600F020F8534649
:100130005A46C01A914110D311461846224600F083
:10014000E7FC2D1A67EB01084F46224601200021EB
:1001500000F0DEFC17EB00094E41201EA4F1010463
:10016000DFDC484631462A464346BDE8F09F202A58
:1001700004DB203A21FA02F00021704721FA02F351
:10018000D040C2F12002914008431946704710B593
:10019000431A934209D28318881803E010F8011D0E
:1001A00003F8011D521EF9D210BD40EA01039B075E
:1001B00003D009E008C9121F08C0042AFAD203E0DC
:1001C00011F8013B00F8013B521EF9D210BDD2B22A
:1001D00001E000F8012B491EFBD270470022F6E730
:1001E00010B513460A4604461946FFF7F0FF2046AD
:1001F00010BD10B5044604E00B7800F8013B03B1D4
:10020000491C521EF8D2204610BD421C10F8011B9A
:100210000029FBD1801A704710B5002200E0521C63
:10022000835C8C5CA34201D1002BF8D1D8B2E1B23F
:10023000401A10BD30B505460020034600E05B1CA7
:10024000934205D2EC5CC85C201A01D1002CF6D197
:1002500030BD000070B50F4D00B92868002412E0D1
:100260000A4602E09E4203D0521C1378002BF9D1BB
:10027000DAB2224305D02BB124B1002100F8011BD2
:1002800004E00446401C0678002EE9D12860204690
:1002900070BD0000080000200FB400B58DB010A99B
:1002A00009900B9000914FF0FF300A9000200C90C5
:1002B00005480690054807906A4609A80F9900F07E
:1002C0006BFC0DB05DF814FBB50B0008D30B0008F8
:1002D0002DE9FF5F1D464FF0FF3BD5E901469146F2
:1002E0005F464FF00008A9697F1C01988847296A7A
:1002F000824688470028F6D1BAF1FF3F0CD024F49B
:10030000C064002E19DD600614D5BAF12B0F09D098
:10031000BAF12D0F0ED103E0584604B0BDE8F09FAE
:1003200044F48064A9697F1C01988847761E824640
:10033000002E02DDBAF1300F03D0B9F1000F26D044
:1003400032E0A969761E44F400747F1C0198884746
:100350008246002E05DDBAF1780F06D0BAF1580FAB
:1003600003D0B9F1000F10D01EE0B9F1000F02D098
:10037000B9F1100F18D1A969761E24F400747F1CFE
:10038000019888478246102002E0082000E00A20F9
:10039000814609E008FB0908A969761E44F4007447
:1003A0007F1C019888478246002E05DD494650464D
:1003B00000F0DDFB0028EDDAE96901988847A00527
:1003C00002D46FF00100A8E7E00725D1600613D53D
:1003D000600502D5C8F1000000E0404629680A1D0A
:1003E0002A600968220501D5087015E0220701D5A9
:1003F000088011E008600FE02868011D296000688E
:10040000210502D580F8008006E0210702D5A0F87A
:10041000008001E0C0F8008038467EE72DE9FF5FEC
:10042000D2E901A74FF00008916999461446DDF81A
:1004300038B0464601988847054659EA0B0005D072
:1004400009E0A169761C019888470546216A28467B
:1004500088470028F5D1681C03D05FEACA7005D030
:1004600015E04FF0FF3004B0BDE8F09F2068011D9B
:100470002160D0F800800AE05FEACA7001D108F874
:10048000015BA169761C7F1E019888470546002FF5
:100490001ADD681C18D0B9F1000F0DD0E81705EB74
:1004A000D060421120F01F0059F822102A1A0120B2
:1004B00090400142E0D107E0BBF1000FDCD1216A9E
:1004C000284688470028D7D0E16901988847BBF1C2
:1004D000000F07D1002E05DD5FEACA7002D10021AE
:1004E00088F80010A068B84203DDBBF1000F03D00C
:1004F00017B16FF00100B6E73046B4E72DE9F047D9
:1005000091460F4680460446002614F8015B2DB143
:1005100000F020FB0068405DC007F6D12B2D02D013
:100520002D2D18D0641E4A463946204600F062FB45
:1005300027B13968A14201D1C7F8008071054FF099
:1005400002040BD54042002803DD0BF02DFE0460B1
:10055000A007BDE8F08746F48066E4E70028F8DAF3
:100560000BF022FE04606FF00040F2E770B5064623
:100570000BF01AFE046805460A2200213046FFF7F8
:10058000BDFF2C6070BD000070B5054C054D04E04A
:100590002046016808448047241DAC42F8D170BD54
:1005A00080E9000884E900080B460146184600F07F
:1005B00074BBF0B480EA0102D40F4200B2EB410FE9
:1005C00002D20246084611464A0042D0C30DDDB2AF
:1005D000C1F3C752AD1A202D35DAC1F3160141F42B
:1005E000000204B15242C5F1200602FA06F12A4186
:1005F0001044B3EBD05F23D0C4B1012DA0EBC350A6
:1006000009DCF0BC4FF0004202EAC352DBB200F555
:10061000000000F062BB400000F1807000EBC350AE
:10062000A0F1807040EAD170490009E0490841EA30
:10063000C071A0EBC35000F50000400800EBC350B0
:10064000F0BC00F041BB6142012202EB4101001B02
:10065000F6E7F0BC704781F00041AAE780F0004067
:10066000A7E780EA010210B502F00043400022D063
:100670004A001FD0010E01EB1261C0F35600C2F315
:10068000560240F4000042F40002A0FB02200004E5
:100690007F39140400D0401C50EA124001D44000BD
:1006A000491EC2B20C0604EBD010401C4008802A40
:1006B00002D003E0002010BD20F00100002900DA84
:1006C0000020184310BD30B480EA010202F000455A
:1006D00030F0004221F0004013D090B1C30DD40D92
:1006E000C2F31601C0F31600E41A41F4000140F40D
:1006F00000027D34914201D3641C00E04900002CCB
:1007000002DA30BC002070474FF400000023914211
:1007100001D3891A034340084FEA4101F7D151B18F
:10072000914202D14FF0004105E002D24FF00101A9
:1007300001E06FF0010103EBC450284430BC00F02D
:10074000C3BA2DE9FE4F804681EA0300C00F0C4674
:10075000009021F0004123F00045B8EB0200A941D0
:1007600005D24046214690461C460B46024623F0E1
:100770000040104347D0270DC7F30A00C3F30A51C6
:100780000290401A019040286BDAC3F3130040F442
:10079000801B0098924620B10023D2EB030A63EB42
:1007A0000B0B01985946C0F14002504600F0B0F9D9
:1007B00006460D4650465946019A00F0B8F910EB2E
:1007C00008006141002487EA115284EAE7731A4362
:1007D00040D0009A62B3019A012A4FEA075215DC11
:1007E000001B61EB02014FF0004202EA0752CDE923
:1007F0000042001C41F5801132462B4600F0D9FA28
:1008000003B0BDE8F08F40462146F9E7001B61EBDD
:100810000201001C41F5801300185B412018A2F56D
:10082000001747EB030140EAD570B6196D4111E09E
:100830006D084FEA360645EAC0754FEA0752001BBD
:1008400061EB0201001C41F5801149084FEA3000BC
:100850000019514132462B4603B0BDE8F04F00F07D
:1008600099BA0098012240000023D0EB020263EB0A
:10087000E073009821464FEAE074B8EB000061EBAA
:100880000401E9E783F000435BE781F0004158E7AA
:100890002DE9FE4F81EA030404F0004421F00041F9
:1008A00000944FF0000B23F0004350EA01045ED0A7
:1008B00052EA03045BD0C3F30A54C1F30A552C4433
:1008C000A4F2F3340194A0FB0254C1F3130141F4E8
:1008D0008011C3F3130343F4801301FB024400FBB4
:1008E000034E840A970A44EA815447EA8357A4FBDB
:1008F000076802958D0A05FB07854FEA932C04FBD8
:100900000C542705029D4FEA065847EA1637B5EB07
:1009100008056EEB070C870E920E47EA811742EA34
:100920008312A7FB0201B6EB0B0164EB00042B0D55
:1009300043EA0C335E1844EB1C50DA465146E7FBA1
:100940000201C5F313044FEA0B3343EA14534FEA91
:100950000432019C43EA0603A4F10C040294009CB7
:10096000CDE900B400F025FA03B0BDE8F08F002017
:100970000146F9E72DE9F04D81EA030404F0004B4C
:1009800021F0004514464FF0000A23F0004150EAE0
:10099000050220D054EA01021DD0C5F30A570246D1
:1009A000C5F31303C1F31300C1F30A5640F48015D5
:1009B00043F48013A7EB0608101BD64608F2FD3857
:1009C00073EB050002D308F1010801E092185B41C6
:1009D000B8F1000F03DA00200146BDE8F08D0020D9
:1009E0004FF48011064684460EE0171B73EB050793
:1009F00005D3121B63EB050306434CEA010C4908BF
:100A00004FEA300092185B4150EA0107EDD152EAFB
:100A1000030012D082EA040083EA0501084305D0EE
:100A2000101BAB4106D20122002306E000224FF04A
:100A3000004302E06FF0010253101AEB06004CEB8A
:100A4000085110EB0A0041EB0B01BDE8F04D00F03E
:100A5000A1B9002801DBC0F10040002901DBC1F190
:100A60000041814201D30120704700207047C10F2F
:100A700080EAE0700844CA079623002100F02DB9EF
:100A800096230022114600F028B900F0004220F021
:100A90000040C10DC0F3160040F400007F2901DAC8
:100AA00000207047962903DCC1F19601C84001E09F
:100AB00096398840002AF4D04042704720F0004028
:100AC000C10DC0F3160040F400007F2901DA0020B8
:100AD0007047962903DCC1F19601C84070479639EA
:100AE0008840704730B50B46014600202022012483
:100AF00009E021FA02F59D4205D303FA02F5491BEC
:100B000004FA02F52844151EA2F10102F1DC30BD01
:100B1000202A04DB203A00FA02F1002070479140BD
:100B2000C2F1200320FA03F3194390407047202AB2
:100B300006DBCB17203A41FA02F043EAE07306E005
:100B400041FA02F3D040C2F1200291400843194615
:100B500070470000004870477CCC000810B5044680
:100B6000FFF7F8FF0068005D00F0010010BD3A28B3
:100B700000D2303820F02002412A01D3A2F1370000
:100B8000884201D34FF0FF307047000002681144E3
:100B90001378016018467047D160044951610449D7
:100BA000116200211161114600F094B98D0B00080B
:100BB0005D0B0008426842B1016811F8013B23B1A6
:100BC000521EC0E90012184670470121C160881EFC
:100BD000704742685AB1C368016843B983688B4261
:100BE00005D0491E521CC0E90012002070474FF08A
:100BF000FF3070472DE9F05F8246007800271546E8
:100C00008B460AF10104B946302801D09DB113E0AA
:100C100014F8010B0127782803D0582801D045B1DA
:100C20000AE00DB1102D07D10027102514F8010B93
:100C300002E0082500E00A250026B0460EE005FB8C
:100C4000080005FB06F1012701EB10461FFA80F8AA
:100C5000B6F5803F00D3B94614F8010B2946FFF7DB
:100C600086FF0028EBDABBF1000F05D00FB1641E40
:100C700000E05446CBF80040B9F1000F06D00BF06D
:100C800093FA02210160C81EBDE8F09F48EA0640C1
:100C9000FAE70023036000F0D2BA2DE9F0410746DD
:100CA00015460E4610200BF051FF04000AD0676075
:100CB000C4E9026500F0F8FA0168216004600020D0
:100CC000BDE8F0810120FBE70029A8BF7047401C68
:100CD000490008BF20F00100704710B4B0FA80FC52
:100CE00000FA0CF050EA010404BF10BC704749B18F
:100CF000CCF1200421FA04F411FA0CF118BF0121FF
:100D000021430843A3EB0C01CB1D4FEA00614FEADE
:100D1000102042BF002010BC704700EBC3501044AD
:100D20000029A4BF10BC7047401C490008BF20F038
:100D3000010010BC7047F0B4002802DCF0BC0020B9
:100D40007047C0F3C751C0F3160040F40000CA0753
:100D500001D14000491E3F2202EB610500221146ED
:100D60004FF4000626FA01F31344D418844201D844
:100D7000001B1A464000491C1729F3DD510081422F
:100D800002D24FF0FF3100E0002102EBC550F0BC71
:100D9000FFF79ABF10B5141E73F1000408DA401C67
:100DA00041F1000192185B411A4301D120F001008A
:100DB00010BD2DE9F04D92469B4611B1B1FA81F27A
:100DC00002E0B0FA80F220329046FFF7A1FE04461E
:100DD0000F4640EA0A0041EA0B0153465A460843CF
:100DE00013D0114653EA010019D0C8F14002504611
:100DF000FFF7BDF905460E46504659464246FFF7F5
:100E000087FE084305D0012004E020463946BDE8AE
:100E1000F08D0020054346EAE0762C4337430A98DC
:100E20006305E40AA0EB08000022FD0A44EA4754E7
:100E30000A3002D500200146E9E701051019694191
:100E4000DDE9084500196941BDE8F04DA2E7C1F3AD
:100E50000A52C1F3130140F2FF3341F480119A4268
:100E600002DA00200146704740F233439A42A2F270
:100E7000334202DC5242FFF77AB9FFF749BE000065
:100E800030B5041E71F1000404DB4FF00044404211
:100E900064EB0101141E73F1000405DB1C464FF0E6
:100EA0000043524263EB0403994208BF904230BDB5
:100EB000064C074D06E0E06840F0010394E80700A7
:100EC00098471034AC42F6D3FFF704F960E9000804
:100ED00080E900082DE9F34F8BB04FF0000801F1D5
:100EE0000C000C464FF0010B46460DF1080A01902C
:100EF0006269012101989047051E2DD0252D2CD027
:100F0000216A8847C0B16269012101989047216A2E
:100F100088470028F7D1411E62690198904700E098
:100F2000761CA1690B988847216A88470028F7D169
:100F3000E1690B988847DBE7A1690B98884707466A
:100F4000A84201D1761CD3E7E1690B9888477F1C42
:100F500002D1B8F1000F6FD046E1002762693D462B
:100F60003946019890472A2804D1626901210198E5
:100F700090470125DFF8849262690121019890472A
:100F8000A0F130010A290AD24F45E5DC07EB8701C1
:100F900000EB4107303FDFD445F01005ECE7E906F0
:100FA00001D46FF000476C280AD04C2814D0682870
:100FB00015D06A280DD074281CD07A281AD01DE0CC
:100FC00062690121019890476C2802D045F0040520
:100FD00014E045F002050DE045F020050AE06269E5
:100FE000012101989047682802D045F0080505E0E6
:100FF00045F400656269012101989047C4E90157F1
:1010000065283DD019DC58287AD00CDC452837D02B
:1010100004DC252826D0412831D131E046282FD0C4
:1010200047282CD12CE05B2877D0612828D0632872
:101030007CD0642823D15AE0D0E06F2848D008DC67
:1010400066281DD067281BD0692821D06E2816D1AC
:1010500027E0702845D0732868D0752847D07828B5
:101060000DD14DE0A1690B988847054625283FF42E
:1010700069AFE1690B9888476D1C3FF46AAFB3E034
:1010800023466A466FF001000B9900F0C7F99EE015
:1010900045F040006060A80723464FF0000236D4B8
:1010A0003EE0E8077FF447AF2068011D216000683B
:1010B000290501D506701BE7290701D5068017E72A
:1010C000A90703D5F117C0E9006111E706600FE732
:1010D00045F040006060A80723464FF0080216D490
:1010E0001EE040F60E0125EA0100606016E045F0C2
:1010F00040006060A80723464FF00A0207D40FE0C3
:1011000045F040006060A80708D5234610226FF024
:1011100001000B99AFF3008059E007E0234610224D
:101120006FF001000B99FFF7D3F850E04FF0000982
:101130004F464B46632802D05B2806D040E0E806C5
:1011400001D40120A06001273AE0626901210198E1
:1011500090475E2805D14FF0010962694946019820
:101160009047216939B900210A46534643F82120A6
:10117000491C0829FADBB0B3216969B9C11700EB32
:10118000D16253110AEB830122F01F02821A01205F
:101190000B68904003430B606269012101989047FE
:1011A0005D28E8D1B9F1000F09D00020514651F86F
:1011B0002020D24341F82020401C0828F7DB02AB56
:1011C000224600976FF001000B99FFF727F90028DE
:1011D0000CDA401C08D1BBF1000F05D04FF0FF30F6
:1011E0000DB0BDE8F08FFFE74046F9E7E90701D110
:1011F00008F1010806444FF0000B79E6CCCCCC0C8A
:101200000FB40B0010B58AB00FA900910E994FF0E2
:101210000004234ACC60214CCDE9064200D00423CF
:101220006FF00042CDE901321E4A089202466B4639
:10123000002000F0F3F80AB010BC5DF814FBF0B524
:1012400085B007464FF0FF300091CDE901011E4601
:10125000002015460C4604903B466A46314604A8D9
:10126000FFF7CEFF04990346601825B109B1024685
:1012700000E022462A6000290ED0002B02DD0099F2
:10128000814209D00094001BCDE901043B466A4627
:10129000314604A8FFF7B4FF05B0F0BDB50B000858
:1012A000D30B00085D0B00080048704710000020B9
:1012B0002DE9F0410646FFF7F7FF8046454613E06B
:1012C00016B1E068B0420ED120682860D4E901016F
:1012D000D8F80070884720460BF0FEFBD8F80000D5
:1012E000B842EBD100E025462C68002CE8D1BDE8DF
:1012F000F08100002DE9FF4F087883B09946FF2860
:1013000005D0491C2D2804D00024002008E000202E
:101310000BE00124F9E700EB800003EB4000491CDF
:101320000B78FF2BF7D104B14042002302931478CD
:1013300019461D462D2C01D02B2C04D1521C2D2CCE
:1013400013D000240294AA461478FF2C0FD00A254B
:10135000A3FB057801FB05814FF0000C03FB0C118A
:10136000521CE3194AEB0101EEE70124EAE781444C
:1013700053EA010002D019F5C87F06DA039800216C
:10138000C0E9001107B0BDE8F08F0025AE4E2F4632
:10139000DFF8B882184600F05EF9CDE90001B9F136
:1013A000000002DAC9F1000400E004460023A74A65
:1013B0001AEB030B42EB045A12E0E00707D02A466F
:1013C000334638464146FFF763FA074688462A46C1
:1013D000334610461946FFF75BFA05460E46641081
:1013E000002CEAD1DDE90001B9F1000F5A4653465D
:1013F00006DAFFF7BFFA3A464346FFF7BBFA05E0C5
:10140000FFF746FA3A464346FFF742FA029A0AB114
:1014100081F00041039AC2E90001B3E72DE9FF4FD3
:101420001F468DB0D7E901464FF0FF382E204546C4
:101430004FF000090B90B9696D1C0E988847396A06
:10144000824688470028F6D1BAF1FF3F0AD024F43B
:10145000D064002E11DDBAF12B0F08D0BAF12D0F98
:101460000BD102E0404611B08DE744F48064B969C5
:101470006D1C0E9888478246761E6946600501D528
:101480002D2000E02B208DF8000001F1010B0DF163
:10149000200809E0B9696D1C0E98884782460F98AC
:1014A00044F40074761E0560002E02DDBAF1300FA0
:1014B000F0D00B998A453ED144F0800406E00F99A4
:1014C000681CA9F1010944F400740860B9696D1C35
:1014D000761E0E98884782463028F0D02BE00B9974
:1014E0008A4505D1200603D444F08004761E18E016
:1014F00050460AF035FF08B30DF11302761EAAF12B
:10150000300044F40074934506D20BF8010B20061A
:1015100007D5A9F1010003E0200602D409F101007A
:101520008146A00502D50F99681C0860B9696D1C39
:101530000E9888478246002ED1DC53E0002E51DD04
:10154000BAF1650F02D0BAF1450F4BD1A00549D5CC
:10155000B9696D1C24F44074761E0E988847824643
:10156000002E0CDD2B2804D0BAF12D0F07D144F446
:101570008074B9696D1C0E9888478246761EE00516
:1015800001D52D2100E02B2108F8011BCDF82C807E
:1015900021E00DF12901761E44F4007488450CD237
:1015A000AAF1300010F0FF0088F8000002D10B997A
:1015B000884509D908F1010806E0E00501D524486D
:1015C00001E042F20F708146B9696D1C0E988847A0
:1015D00082460F980560002E04DD50460AF0C0FEDA
:1015E0000028D6D1F9690E988847FF208BF80000B3
:1015F00088F800000020069007904B466A4608A92C
:1016000006A8FFF777FEA00502D46FF001002AE7D5
:1016100014F0240F0AD0E00714D1DDE9061238686F
:10162000031D3B600068C0E900120BE0DDE9060124
:1016300000F01DF80146E00704D13868021D3A6049
:101640000068016028460EE7000014400000F03FEB
:10165000F1D8FFFF70470EB540F2334202920022EC
:10166000CDE900221346FFF7A4FB03B000BD01F053
:10167000004330B421F0004150EA010206D00A0DC7
:10168000A2F56072C1F31301002A02DC30BC002015
:101690007047440F44EAC104C100E01830BC00EBBD
:1016A000C250FFF711BB70B58C1810F8015B15F034
:1016B000070301D110F8013B2A1106D110F8012BC4
:1016C00003E010F8016B01F8016B5B1EF9D12B07E9
:1016D00005D40023521E0DD401F8013BFAE710F89F
:1016E000013BCB1A921C03E013F8015B01F8015B8C
:1016F000521EF9D5A142D8D3002070BDB0B51B4D04
:101700000446287840B90220FF21142802D0295429
:101710000130FAE701202870112C06D8204600F08D
:1017200013F8013004D0FE2000E0FF2040B2B0BD2D
:101730006878112801D9FD20F8E7411C28448470FD
:1017400000206970F2E700BF10B5084900224B780D
:10175000934205D08C18A478844204D00132F7E774
:101760004FF6FF7000E0D0B200B210BDA40300201D
:1017700010B5C9B201220723044606F054FB2046E7
:10178000012106F08AFB2046022106F03CFB0028DE
:10179000F9D02046BDE8104006F06FBBBCB504464A
:1017A0001A48012107F066FD022007F01BFC01AD7D
:1017B000284606F004FB4FF0807029460190204631
:1017C00006F0DBFA20460721012206F059FB2046ED
:1017D000002106F00AFB20462021002206F018FB1B
:1017E0002046012106F00AFB204606F0ECFA2046CE
:1017F00006F0EEFA0028FAD1204606F0EDFA20466F
:1018000006F0EFFA0028FAD1BCBD00BF09001800AD
:1018100070B5134E0820B047044602F013F80820B4
:10182000B047054601F03AFD20603420B0470DA1D5
:101830002A46002305F014F9264646F8040F2846E8
:1018400001F06CF930460121002201F01FFC304606
:101850000221002201F01AFC01F066FA204670BD58
:10186000497B0008476C6F62616C0000BCB5051DC8
:10187000044604210022284601F008FC206801F0FB
:10188000BBFC019001AA2846052101F0FFFB01984D
:10189000BCBD80B509F0CCFE052009F065F9BDE8B6
:1018A000804000F007B800001048016821F00101F5
:1018B0000160704780B509F0EDFE0A484FF47A7177
:1018C0000068B0FBF1F00021421E0748B1EB126F37
:1018D00006D1064B5A60F0220270072299601A6006
:1018E000017080BD3001002023ED00E010E000E039
:1018F00080B5102008F00EF930B18748006900B1BA
:101900008047102008F002F9202008F003F930B1D8
:101910008148406900B18047202008F0F7F8402056
:1019200008F0F8F830B17C48806900B18047402069
:1019300008F0ECF8802008F0EDF830B17648C06986
:1019400000B18047802008F0E1F84FF4807008F083
:10195000E1F838B17048006A00B180474FF48070F8
:1019600008F0D4F84FF4007008F0D4F838B16A48A1
:10197000406A00B180474FF4007008F0C7F84FF498
:10198000806008F0C7F838B16348806A00B18047CA
:101990004FF4806008F0BAF84FF4006008F0BAF82D
:1019A00038B15D48C06A00B180474FF4006008F06C
:1019B000ADF84FF4805008F0ADF838B15648006BE0
:1019C00000B180474FF4805008F0A0F84FF4005069
:1019D00008F0A0F838B15048406B00B180474FF490
:1019E000005008F093F84FF4804008F093F838B1B5
:1019F0004948806B00B180474FF4804008F086F87A
:101A00004FF4004008F086F848B14348C06B00B17D
:101A100080474FF40040BDE8804008F077B880BDB3
:101A200080B5012008F076F830B13B48006800B17D
:101A30008047012008F06AF8022008F06BF840B1F6
:101A40003548406800B180470220BDE8804008F07A
:101A50005DB880BD80B5042008F05CF830B12E4838
:101A6000806800B18047042008F050F8082008F092
:101A700051F840B12848C06800B180470820BDE84F
:101A8000804008F043B880BD80B500F047F80228D8
:101A90003CBF052080BD0721042838BF0621084629
:101AA00080BD00002DE9FF473F2832D899461646F1
:101AB0000C46054600F032F80F282AD8074616488B
:101AC000DDF8308001214FF0010A40F827404FF443
:101AD000C01007F0CFFB284600F02EF8394609F079
:101AE0007FFA01AC204608F00BF800208DF80DA01D
:101AF0008DF80C608DF804000AFA07F00290204679
:101B000008F010F82846FFF7BFFF4946424608F0A4
:101B1000FBFFBDE8FF8700BFB80300200E4901EBC3
:101B200000108089AFF30080002102283CBFC8B2BA
:101B3000704701314008F8E70749000107A209583A
:101B40000020042805D052F82030994202D00130FC
:101B5000F7E7FF20C0B2704780CC000800000048C3
:101B60000004004800080048001400482DE9FC412A
:101B7000804600F138404FEAB024052C3CD80F468F
:101B8000E0B2272121FA00F0C00735D068461E4692
:101B9000154608F055FE082D8DF8076000972BD8E4
:101BA000DFE805F00507090B2A1C0E1219000020BA
:101BB00016E0012014E0022012E04FF440700FE024
:101BC00001208DF8060003E002208DF806000120B8
:101BD000ADF8040006E04FF4007001E04FF48070AF
:101BE000ADF8050005A0012150F8240007F042FBE4
:101BF0006946404608F02BFEBDE8FC811100140048
:101C0000120014001300140011001400110014003D
:101C10001600140081B078B50D460E490593097879
:101C2000814213D80CA1104E14462B4651F82020A7
:101C30000EA1304602F007FA05AA3046214600926E
:101C400002F01BFA0CA1304602F0D8F9BDE878404A
:101C500001B07047BD000020A1E10008ACE1000820
:101C6000A7E10008B1E10008F80300205B25735DDF
:101C70002025733A200000000D0A0000E0B5032083
:101C80004FF4E1310022012300900C4801F0C8FC20
:101C90008CBD00BF0146094802F0B0B983B018B549
:101CA000044603A80EC003AA21460448009202F08D
:101CB000E4F9BDE8184003B0704700BFF803002006
:101CC00004289CBF01490870704700BFBD00002078
:101CD000094C0E4D09A200F0F1F80DA200F0EEF84B
:101CE00010A200F0EBF813A200F0E8F815A200F043
:101CF000E5F801F09DF900BF8BE100084658584B0C
:101D00002050414E4943202121210000151C00088C
:101D10004669726D776172653A20447574794379CA
:101D2000636C6500536F6674776172653A20763133
:101D30002E32000048617264776172653A20763114
:101D40002E3300004275696C642054696D653A2039
:101D500046656220203820323032362032303A3127
:101D6000353A3435000000007046694606F036FD0D
:101D7000FFF7AEFF184C174E1B4FEFF3148317A25B
:101D80000320B56A2146B847336818A203202146CC
:101D9000B847736B18A203202146B847280603D51D
:101DA0000D491DA200F08DF8A80703D50A4921A20C
:101DB00000F087F8E80703D0074924A200F081F873
:101DC000E80603D5044927A200F07BF801F000F9EA
:101DD00001F04AF900ED00E0FDE100084354524CE7
:101DE0002030782578000000151C0008435055204D
:101DF00049442030782578004D656D4D616E6167EE
:101E000065204661756C742041646472657373204B
:101E10003078257800000000417474656D7074207E
:101E2000746F2061636365737320616464726573AA
:101E3000730000004F7065726174696F6E206E6F81
:101E400074207065726D6974746564004E6F6E2DD8
:101E500065786563757461626C6520726567696F2A
:101E60006E000000537461636B696E672065727267
:101E70006F7200000120214630470822CDE900059D
:101E8000206804F09EBD41463A4603F0DFBDD0E92C
:101E900000311846102304F07DBD0020CDE9006715
:101EA000FFF7B8BE204609F0D3B804F11C01221D8B
:101EB000FFF7F4BE2046324606F09CB803202146C8
:101EC00028470320FFF7A6BE016800224B694FF0A8
:101ED000804118470121204609F079BC4FF01C10C1
:101EE000012107F0C7B901464FF09040012208F0E8
:101EF000E9BC0725A34005FA04F40C250A2970471C
:101F00000199C1F30342C1F3015141EA810102EB9E
:101F10004101C1700199C1F30322C1F3023101EB08
:101F2000810102EB410101710199019AC2F38052D2
:101F3000C27101F00F02C1F3021101EB810102EB4A
:101F4000410141717047206840F0400020604FF02F
:101F5000804008F031BB054620462146FEF729BBEC
:101F6000204605F0E4BE8568651B00EB2510C568BA
:101F7000002D70474FF000080746C0F80080686ADF
:101F8000002870470021002209F050BE01900D4644
:101F900014463068017A002970470099C1F3032282
:101FA000C1F3003141EA810102EB41014170009926
:101FB000009AC2F34232827101F00F02C1F30111A3
:101FC00041EA810102EB4101817070474FF48010BA
:101FD00008F0F2BAA0EB470040EA0510009DC0B23D
:101FE00070474FF07C510446FEF733BD204629462A
:101FF0000022012307F0CCB90A20294608F050BB83
:10200000286830F8341030F831106FF3DF31704742
:102010000021C0F80310016070474FF07E51FEF7B9
:10202000C8BA002308F034BF216821F00101216003
:1020300010BD4FF03F41FEF714BB00F0FE00022838
:10204000704728606FF080006860FF20E861012021
:10205000B0BD4FF08040FEF7FEBA0423CDE9007713
:1020600005F065BE4FF07C51FEF7FBBA20F003038C
:10207000404605F0CEBDC5B20A260024B5FBF6F5F4
:10208000009405EB85077047226842F00102226048
:10209000704741EA00200090D0B2B0FBF6F000EBB0
:1020A000800170470146FEF7DCBA41EA0010009952
:1020B000C0B2704745EA00400090C8B2B0FBF6F0ED
:1020C00000EB8005704700002DE9FE4F3F2817D830
:1020D000DFF858AF05460AEB0010D0F80480B8F1DD
:1020E000000F0DD00AEB0517BC7B4CB10E4639B181
:1020F00093462AB12A490BFB06F00968884203D9A6
:1021000000242046BDE8FE8F2846082108F03CFD4B
:10211000B889FFF709FD814628462F0100F046FAED
:1021200002465AF80700494608F0CCFB404600F04A
:1021300007FA05464046002100F091FA4046012189
:10214000012700F0E7F9B5FBF6F0711EB0FBFBF0DC
:10215000013882B2404609F0FDFA4046002109F0FC
:1021600023FB01A809F0BEFB0E488DF80A70019010
:102170004FF48070ADF80800601EC1B20329C0D8CA
:10218000400001AAC1B2404609F032FB404601219D
:1021900009F0AAFB4046012109F00FFBB1E700BF9F
:1021A00030010020070100010A46034901EB00113C
:1021B0004868897B00F04ABA80CC00081CB5044608
:1021C000684607F02DFBBDF801009DF803109DF84F
:1021D000062060809DF800006171BDF80410227136
:1021E00000F5FA60E18020801CBD0000B0B583B22C
:1021F0006424B3FBF4F303F0FC0503FB1400132D7C
:1022000088BF643000EB9003DBB20724B3FBF4F526
:10221000C5EBC5055B1B1A4409A380070B4413F8E3
:10222000013C1A44104608BF0138032928BF104654
:1022300080B2B0FBF4F1C1EBC101401AB0BD00BFE8
:1022400000030306010406020500030580B5FFF73D
:1022500045FE012008F06EFD002007F0C7FA41F2AC
:102260003421884203D1BDE8804007F033BCFFF73A
:1022700035FE012008F05EFD012006F0DDFE0020A5
:1022800006F0DAFE032006F093FF012006F086FF39
:1022900007F070FB07F01EFC632040F6C31107F047
:1022A00019FB002007F03AFB14200121012203232F
:1022B00007F0D2FA0C2000210022002307F0B6FB21
:1022C000002041F23421BDE8804007F09BBA082885
:1022D00005D0202805D0102807D1012002E00220D7
:1022E00000E00020B1F5007F01DB002312E00023B5
:1022F00011F5007F0EDD80B50029C8BF0123C1EBB9
:102300004322194607F058FB0138B0FA80F0430920
:10231000BDE8804018467047F8B51C4615460E4685
:102320000746FFF763FF034607F1300031462A46B0
:10233000C0B207F091FA01280AD1DDE90612204661
:102340000023002507F072FB012808BF012500E0EB
:1023500000252846F8BD00001B491C4A0020521ADF
:10236000B0EB920F04D251F8203023B90130F7E7D7
:102370000648006807E0C0EB9201044A10688142F9
:1023800084BF116008468000704700BF54040020DD
:1023900010B5FFF7E1FFFEF773FB04460A480B494F
:1023A000081AFEF76DFB01462046FEF78CF910BDBA
:1023B00010B5054805490C1AFFF7CEFF201A10BDCD
:1023C00001480249081A7047881C0020882C002008
:1023D0000248016801310160704700BF58040020C5
:1023E0001148016841F00101016001688907FCD5CD
:1023F000416821F003014160416811F00C0FFBD1ED
:1024000001680A4A114001600021416041F61071E3
:10241000C1624FF4801101634FF41F0181600448D1
:102420004FF000610160704700100240FFFFF2FEB4
:1024300008ED00E010B5C94CFFF74CFD48B1CC48A1
:10244000C06800B1804720460121BDE8104009F076
:10245000BBB910BD10B5C34CFFF73CFD48B1C44833
:10246000006900B1804720460121BDE8104009F015
:10247000ABB910BD10B5BC4CFFF72CFD48B1BC4842
:10248000406900B1804720460121BDE8104009F0B5
:102490009BB910BD10B5AF4CFFF71CFD48B1B44857
:1024A000806900B1804720460121BDE8104009F055
:1024B0008BB910BD10B5AA4CFFF70CFD48B1AC4864
:1024C000006800B1804720460121BDE8104009F0B6
:1024D0007BB910BD10B5A54CFFF7FCFC48B1A44872
:1024E000406800B1804720460121BDE8104009F056
:1024F0006BB910BD10B5984CFFF7ECFC48B19C4887
:10250000806800B1804720460121BDE8104009F0F5
:102510005BB910BD10B5094B0022072A08BF10BDDA
:1025200053F83240844201D00132F6E703EBC20097
:102530004068BDE8104006F09DBE00BF80D0000896
:10254000B0B5114D0446286810B90F4806F0AAFD31
:102550008648844213D08048844210D07D4884420B
:102560000FD07F4884420CD07E48844209D07E48F8
:10257000844206D0794884421CBF0020B0BDE86880
:10258000B0BDA868B0BD00BF780400200139CAB250
:10259000032A07D880B54900C9B209F0E3F8BDE8BD
:1025A000804000E0002080B27047000010B526494E
:1025B00001EB0010817B42686C4800F59E339A4223
:1025C00008BF01293AD09A4208BF022936D000F547
:1025D000E0539A4208BF012930D0824208BF012946
:1025E0002ED0824208BF02292AD0824208BF032986
:1025F00026D0824208BF042922D000F594308242BE
:1026000008BF01291ED0824208BF02291AD0824287
:1026100008BF032916D0504081F004042043B0FACB
:1026200080F04FEA50104FEA400006D09A4204D1A1
:10263000481EB0FA80F04009800010BD002010BD97
:10264000012010BD022010BD80CC00080139CBB2A2
:10265000032B88BF70474900C9B209F095B809F04B
:10266000ACB8FEB5002714460E460546ADF80A7014
:10267000ADF80870FFF764FF8EB101460DF10A0254
:1026800002AB304600F08EF80320BDF80820BDF8FC
:102690000A102346CDE90070284600F001F8FEBD7F
:1026A0002DE9F84304462B48DDE9089817460D4606
:1026B000844216D02848844216D02848844216D036
:1026C0002748844216D02748844216D026488442A0
:1026D00016D02648844218BFBDE8F8830120102692
:1026E00010E0062016260DE0022011260AE0032045
:1026F000132607E000200D2604E00420142601E044
:10270000052015261A4941F82030204609F0FCF82A
:1027100020460121FFF7FEFE2046002109F0EDF8DA
:102720002046002109F040F8691E7A1E204609F073
:1027300011F830464946424608F0E6F920460121A4
:1027400009F042F8204601210122BDE8F84309F0D2
:1027500043B800BF00480140001000400020004086
:10276000002C0140004001400044014000040040B2
:102770005C040020BCB50C460546FFF7E1FE0146AF
:102780000DF1060201AB204600F00CF8BDF8060082
:10279000411EBDF80400421E284602B0BDE8B0400C
:1027A00008F0D8BF10B50F4CB1FBF4F14843C1EBB2
:1027B0000111B0EB410F02D20A210A240DE00A49AF
:1027C000884205D84FF47A71B0FBF1F10C4604E071
:1027D00044F62061B0FBF1F4A1B2B0FBF1F014803B
:1027E000188010BD40420F0017FCE7032A4800F094
:1027F000DDBE00BF09F05EBC09F06ABC2DE9F04106
:1028000049F640414FF0000800260027A0FB014593
:10281000072F0FD0BA1C20462946FDF7A8FC4FF41D
:102820007A720023FDF772FC0646B8EB103F09D020
:102830000137EDE70024B4EB163F20D106254FF613
:10284000FF770BE0042028220023B840A6FB0001FC
:10285000FDF75CFC04460BA0C55D771E0B4E3046B1
:1028600006F0F0FC10B1304606F0AEFC012009F095
:1028700035FC284609F024FCB8B209F039FC2046A2
:10288000BDE8F08100010203040506001D002400DC
:102890000148024900F04CBFF80300200038014015
:1028A00010B504460A480078BFF35F8FC00702D016
:1028B0000848606210BD064809F05AFA0028F7D0AF
:1028C0000448214601F0CAFD014809F07FFAEFE70C
:1028D0008C040020A004002010B504460A480078AB
:1028E000BFF35F8FC00702D00848606210BD064882
:1028F00009F03EFA0028F7D00448214601F06CFFA9
:10290000014809F063FAEFE790040020A8050020D1
:1029100010B50C4800F14004102060F3040400F0EE
:1029200057FB094809498467C1670521BFF35F8FD9
:102930000167016841F480310160BFF34F8FBFF33D
:102940006F8F10BD881C002024ED00E00B000006F6
:10295000B0B5154D044695F90000B0F1FF3F01DD1B
:10296000C0B20EE01120002108F00EF9112006F08F
:102970007BFD287043B20DA110A20120FFF74AF998
:10298000287870B1062C07D0072C07D0112C07D05F
:10299000102C08BF112404E0072402E0102400E0FA
:1029A00012242046B0BD00BFC400002048414C5F47
:1029B00050696E52656D61700000000056312E3115
:1029C00020426F6172642064657465637465643A63
:1029D000202564001CB5044601200021054BFF2280
:1029E000CDE900102046FF21FFF75AFE024844605F
:1029F0001CBD00BFF52F00089803002070B50C4ED9
:102A000004463078BFF35F8FC00702D0301D60628C
:102A100070BD074D284609F0ABF90028F6D0281DF7
:102A2000214602F043FA284609F0D0F9EEE700BF4C
:102A30004402002070B50C4E04463078BFF35F8F1F
:102A4000C00702D0301D606270BD074D284609F0F6
:102A50008FF90028F6D0281D214602F095FB284664
:102A600009F0B4F9EEE700BF0C02002070B50C4E7F
:102A700004463078BFF35F8FC00702D0301D60621C
:102A800070BD074D284609F073F90028F6D0281DBF
:102A9000214602F00FFD284609F098F9EEE700BF45
:102AA000E001002070B50D4E04463078BFF35F8F13
:102AB000C00703D006F10800606270BD074D2846CC
:102AC00009F056F90028F5D005F10800214602F07A
:102AD000CBFE284609F07AF9ECE700BF7801002028
:102AE00070B50D4E0446307BBFF35F8FC00703D037
:102AF00006F10800606270BD06F10C05284609F079
:102B000037F90028F4D006F10800214603F03EFE14
:102B1000284609F05BF9EBE7340200202DE9F04F7D
:102B200087B004463C483D490460204600F067FBFE
:102B30003B4F3420B8473D4E3AA122460023069031
:102B4000B0473420B8473AA1224600230590B04749
:102B50003420B84738A1224600230490B0473420DF
:102B6000B84738A1224600230390B0473420B84725
:102B700036A1224600230290B0473420B84735A141
:102B8000224600230190B0473420B84733A12246A3
:102B900000230546B0473420B84733A1224600231E
:102BA0008046B0473420B84731A1224600238146F1
:102BB000B0473420B84730A1224600238246B047B0
:102BC0003420B8472EA1224600238346B0470698FA
:102BD00000F076F80598FFF765FF049800F08AF892
:102BE000039800F051F80298FFF740FF0198FFF7B3
:102BF00057FE284600F0F4F84046FFF71BFF484612
:102C0000FFF76EFF5046FFF767FE584607B0BDE876
:102C1000F04FFFF7F3BE00BF94040020C93E000848
:102C2000497B000856657273696F6E00616A00081F
:102C3000506F7765720000005761746368446F6776
:102C400000000000427574746F6E0000436C6F6387
:102C50006B0000004374726C0000000054696D65E5
:102C60004D6F6E69746F7200417564696F0000008A
:102C70005368656C6C0000004B5644420000000035
:102C8000416C61726D00000070B50C4E04463078E6
:102C9000BFF35F8FC00702D0301D606270BD074D6B
:102CA000284609F065F80028F6D0281D214604F0D2
:102CB00047FC284609F08AF8EEE700BF38010020FB
:102CC00070B50B4D04462879BFF35F8FC00701D064
:102CD000656270BD2E1D304609F04AF80028F7D015
:102CE0002846214600F056FA304609F06FF8EFE723
:102CF000D001002070B50B4D04462879BFF35F8FDB
:102D0000C00701D0656270BD2E1D304609F030F855
:102D10000028F7D02846214600F064FB304609F031
:102D200055F8EFE7D8010020BCB5FFF731FB10499B
:102D3000FDF797FCFDF7A9FE0446FFF741FB0546AA
:102D4000FFF736FBCDE900500AA110A2012023466F
:102D5000FEF760FF08F0C8FE044608F04DFF009043
:102D600014A119A201202346FEF754FFBCBD00BFE9
:102D70000000C8424D656D6F72795F44756D705388
:102D80007461636B496E666F000000005374616389
:102D90006B3A202564252520757365642028746F9F
:102DA00074616C3A2025642C20667265653A202592
:102DB0006429000048414C5F4D656D6F7279447520
:102DC0006D70496E666F0000486561703A206672EA
:102DD00065653A2025642C206D61783A20256400D1
:102DE00070B50C4E04463078BFF35F8FC00702D039
:102DF000301D606270BD074D284608F0B9FF0028FD
:102E0000F6D0281D214600F0B7FB284608F0DEFF6B
:102E1000EEE700BFFC010020F8B515460C4606465B
:102E200000F032F8C5B1BCB1154FBC4214D87E4891
:102E30000670681C7B4EB0FA80F04FEA501030707C
:102E40000DD005FB04F14FF47A70B1FBF0F04000B7
:102E5000B1F57A7FB06000D2F8BD0138B06070681B
:102E600018B90848FFF7B6FD7068B7FBF4F1FFF733
:102E700081FC70680121BDE8F840FFF7F0BB00BF9E
:102E800020A10700002C014070B5664D044668681B
:102E900010B10021FFF7E3FB20460021002606F0D9
:102EA000F3FA6148FF212E70AE60017070BD00BF63
:102EB000F8B501F037F80CA100F01BFB41490860A0
:102EC00038B1017A29B101684B69094901AA9847CB
:102ED00010B1002004B080BD01AB06480ECB183005
:102EE0000EC00120F6E700BF466C61736800000069
:102EF00000030C40F40000207CB5324EFFF746F88A
:102F000005D001684B69314901AA984730682946C4
:102F1000224600F0B3FA7CBD10B5044608F0E8FD87
:102F20000348044901602046BDE8104008F0E4BDB4
:102F3000B8000020F9BA00081CB5224CCDE90010F9
:102F40002068017AC9B1016800224B691E4998477F
:102F50002068017A89B101684B691C4901AA984728
:102F60002068017A49B101686A464B69044998476B
:102F70002068017A09B1FEF7A7FF00981CBD00BFC9
:102F8000000204407CB50F4EFFF700F80DD0016839
:102F900000224B690C4998473068017A29B10168D1
:102FA0004B690A4901AA984730682946224600F031
:102FB00071FA04463068017A09B1FEF785FF2046B0
:102FC0007CBD00BF980400200001004000040440C4
:102FD0000748BFF35F8F016821F480310160016F02
:102FE00021F001010167BFF34F8FBFF36F8F70476F
:102FF00024ED00E00B48017819B9816869B1013905
:10300000816009480949007801EB00120001085865
:103010009289416951404161704703480078FFF748
:1030200033BF00BF98030020BC00002080CC000804
:103030001448BFF34F8F144A016801F4E061114353
:103040000160BFF34F8F00BFFDE700BF0D48BFF326
:103050004F8F0D4A016801F4E06111430160BFF335
:103060004F8F00BFFDE700BF0648BFF34F8F064AF2
:10307000016801F4E06111430160BFF34F8F00BFAD
:10308000FDE700BF0CED00E00400FA05E0B50068C4
:10309000CDE900126946082203F093FC8CBD0000C4
:1030A000F0B5086920281CBF6FF00100F0BDC868AA
:1030B000DFF824C1494A4A4B4A4C4B4D4B4E4C4FCA
:1030C0004C49C0E90017C0E90265C0E90443C0E902
:1030D000062C0020F0BD00BF7CB5114C0B68154ECE
:1030E0000D4610A2FEF7C6FE6B6813A2FEF7C2FEE5
:1030F000AB6815A2FEF7BEFEEB6817A2FEF7BAFE9C
:103100002B6918A2FEF7B6FE6B6919A2FEF7B2FE94
:10311000D5E906301AA2214600900120B0477CBDB7
:10312000AAD900084669726D776172653A202573E5
:1031300000000000151C0008536F6674776172650B
:103140003A2025730000000048617264776172655F
:103150003A20257300000000417574686F723A20B0
:1031600025730000576562736974653A2025730002
:10317000436F6D70696C65723A2025730000000022
:103180004275696C642054696D653A202573202569
:103190007300000010B588B00A460E490446104678
:1031A000022203F0CEFB0C48694607900B480690BC
:1031B0000B4805900B4804900B4803900B48029075
:1031C0000B4801900B480090FFF786FF204608B09F
:1031D00010BD00BF5D7A000863D900086CD90008F3
:1031E0004AD9000878D900089FD900085ED900089C
:1031F00059D9000895D90008406800F0C1BAB0B5A7
:10320000054640680C4630B9102004F09DFC0021B2
:1032100000F0E8FA68602146BDE8B04000F0A0BACE
:10322000BCB50191C969044600F021F8054618B9FA
:10323000206801A904F0A3FBB5FA85F04009BCBDE4
:103240000A460168AFF3008080B542B1081D0368EB
:103250008B4204D09868904203D0181DF7E70020F5
:1032600080BD0846194604F06BFB012080BD0A466C
:103270000168AFF30080F8B50D46144604310F68BD
:10328000AF4208D0BE682046F169FCF7C5FF391D82
:103290000028F4D100E000263046F8BDB0B5002586
:1032A000044645600C2004F04FFC2060C0E900009B
:1032B00085602046B0BD000070B50446C069002896
:1032C00060D03548006800285CD00E46804705462F
:1032D000207836B370B90120E2690121E560E0751C
:1032E000207020469047E2692046072190472078C9
:1032F000002847D0E2692046022102269047E06874
:103300006188281A88423DD3A07D2670D8B3A06872
:10331000A188281A884235D3E269A5602046042195
:103320002DE078B30020E18820702069281A8842B7
:1033300006D2A08AE2690A210130A0822046904785
:10334000A07D18B1E26920460521904701206188DF
:10335000256120760020A075E068281A884203D2F3
:10336000E269204609219047E269204608219047FA
:10337000E269204606219047E26920460721BDE820
:103380007040104770BDE26920460321904701203C
:10339000A5606076A07570BDC000002010B5044621
:1033A00000206180C4E90700207004F108001221A8
:1033B000E380A280FCF712FF204610BD80B50068B4
:1033C000017A49B1016800224B69054998470028F4
:1033D00018BF4FF0FF3080BD4FF0FF3080BD00BF01
:1033E00000020040BFB50D46044600F09BFD1BA146
:1033F00000F07FF8206070B31B492846082203F0D4
:10340000A0FA42F2107003902068017A51B101686D
:103410004B69164903AA98472068017AB1FA81F1ED
:10342000490900E00121124A0294019261B9016840
:103430004B69104901AA98472068017A21B10168B7
:1034400000224B690C4998470399022091FBF0F147
:10345000284603F021FA204604B0B0BD57617463DA
:1034600068446F6700000000617A000800000440B3
:10347000677A00080003084000010040037A1BB18E
:1034800029B10368DB6818476FF0020070476FF0DE
:1034900003007047037A1BB129B103681B69184701
:1034A0006FF0020070476FF0030070476FF001008B
:1034B00070476FF0010070476FF001007047704770
:1034C000F8B50C46054600276868874228BFF8BD56
:1034D000286850F82760306881683046884702467F
:1034E000C043C00F307214B128463146A04701379F
:1034F000EAE72DE9F0414768884605460024A742DF
:103500000AD0286850F8246040467168FCF784FEB1
:1035100001340028F3D100E000263046BDE8F081F8
:10352000C0E9001270477047BCB504460D464879A3
:1035300094F90810814205D001206946FEF79DFCF0
:1035400068792072A87994F90910814205D0022087
:103550006946FEF792FCA8796072BCBD80B58A68A6
:10356000012A06D142680B68934202D1C968FFF76D
:10357000DBFF002080BD000010B504464FF6FF7051
:103580000A462081216006A1104603F045FA6060DA
:1035900020B120680449012203F0D3F9204610BD70
:1035A000436C6F636B000000697A000810B5044635
:1035B0000069202108F003FDB8B1206908F0E8FC9B
:1035C000218B628B013101F03F01914203D0228BAC
:1035D0002183A1180877616909B1204688472069CD
:1035E0002021BDE8104008F0E3BC10BD018B428BE8
:1035F00091420FBF4FF0FF30418B0844007F70476E
:10360000018B428B914204BF4FF0FF307047418BDA
:10361000428B013202F03F0242830844007F704730
:103620002DE9FE4F8B46044600692F499A46914684
:10363000884208D02D49884252D12D4E4FF01C08A7
:103640000825042706E0274E4FF01B084FF480653D
:103650004FF400772748012105F00CFE3046012188
:1036600005F008FE01AE304607F0EAF845EA07002B
:10367000314601904FF0817002904FF0904007F07A
:10368000E6F83846FEF750FAFEF72DFC2846FEF71E
:103690004BFAFEF728FC184909EB49000A5C08447C
:1036A000594645788378206908F08EFC20692946C0
:1036B00008F0D4FC2069012108F0F3FC2069012105
:1036C00008F0E6FC0C9A4046514607F01DFA2069C6
:1036D0000A49012208F0B4FC2069012108F05FFCCE
:1036E000BDE8FE8F0E001800003801400044004085
:1036F00011001C0011001400B8D0000805000C00D7
:10370000418B01837047B0B50C460546286980217E
:1037100008F055FC0028F9D02869214608F03BFC48
:103720000120B0BD018B408B081A00F03F007047AC
:1037300010B50A4B044600204FF47A722083C4E986
:103740000410C4E9022040210833C4E9003060833A
:1037500004F11C00FCF742FD204610BD00D100081A
:1037600001607047E0B50191043001A904F065F9EA
:103770008CBDE0B50191043001A904F011F98CBDB4
:103780002DE9F041044654F8080F261FB04210D02E
:10379000D0E90175284603F01BFF00283846F5D014
:1037A0002868006880476968286128468847384645
:1037B000ECE74FF0FF382468B44210D0A768387D9A
:1037C00058B938683D6900688047F968401B081A95
:1037D00038BF0020404538BF80460434EBE7404600
:1037E000BDE8F081031D0022C0E90013C0E90232E8
:1037F0007047000080B503A005A107A205F098FA64
:10380000002080BD447574794379636C65000000C5
:1038100076312E330000000076312E32204665626C
:1038200020203820323032362032303A31353A34A6
:103830003500000004F085B910B5044600F044FBE3
:10384000001B10BD10B5FEF719FA0B4C0BA201209E
:103850002146FEF7DFF9FFF75BF800F063FB09484C
:1038600009490430FFF72CFE08A201202146BDE8DB
:103870001040FEF7CFB900BF77E1000862656769C5
:103880006E00000018030020757A0008656E640061
:1038900011480021FEF7E3BE10B50F4C4FF47A70CB
:1038A00041432046FEF766FF2046002107F08AFFCD
:1038B0002046012108F021F820460121BDE81040F2
:1038C000FEF7CDBE80B5FDF7EFFF0348034A0121A7
:1038D000FEF7C7FE002080BD00040040C97A000842
:1038E00080B5A948814209D0064881421CBF6FF0CB
:1038F000040080BD1168FFF7CFFF01E0FFF7C8FFAC
:10390000002080BD0000044004F01BB9F0B58BB06E
:10391000FEF79CFC07A800F04BF89DF820209DF8CE
:103920001E009DF81F10BDF81C30062A9ABF0C4CD3
:1039300054F82220094A9DF822509DF82360BDF8D2
:1039400024709DF821408DE8F70006A107A2012010
:10395000FEF760F900200BB0F0BD00BFCDE100081C
:1039600098D200086F6E496E6974000054696D65E5
:103970003A20253034642D253032642D25303264D0
:1039800020257320253032643A253032643A2530C0
:1039900032642E25640000000E2A1CBF6FF0030065
:1039A000704780B5084600F003F80E2080BD000087
:1039B000BCB504460020A081A0606060206068461D
:1039C000FEF7FCFB00989DF8041020609DF80500B0
:1039D0006071BDF80600E0800720B1FBF0F0A0EBBD
:1039E000C00008442071074805686FF3DF3506F012
:1039F00017F8281A4FF47A714843B0FBF5F020818C
:103A0000BCBD00BF10280040044881421CBF6FF0BD
:103A100004007047114600F003B800BF00000E40DC
:103A20007CB508880C4648B1A178E2786379A5791D
:103A3000E679CDE90056FEF76FFC80B16089B0B140
:103A4000B4F90C10FEF743FCB0B9B4F90C0063896B
:103A50000A490FA200900320FEF7DCF804E00749B2
:103A600007A20320FEF7D6F84FF0FF307CBD0349D4
:103A700016A20120FEF7CEF800207CBDD1E100089F
:103A80005365742074696D65206661696C656400B6
:103A90005365742063616C6962726174696F6E2032
:103AA0006661696C65643A20706572696F6420258F
:103AB00064207365636F6E64732C206F6666736534
:103AC0007420256420636C6F636B730063616C50BA
:103AD0006572696F6453656320697320302C2073AD
:103AE0006B69702063616C6962726174696F6E20CA
:103AF000646174610000000004F023B80020704786
:103B000010B514460A46C168806901441046224631
:103B1000FCF73DFB204610BD70B5044619488142B4
:103B200014D0DF48814218D01848814227D0184865
:103B3000814215D0174881421FD0B1F1804F1CBF80
:103B40006FF0040070BD06F01DFD18E0104604F192
:103B50000C010C22FCF71BFB11E006F04BFD0EE004
:103B60001068E168A26955182E18B54207D2284698
:103B700006F030FD60690544F7E71068A061002099
:103B800070BD00BF00030C40000100400005004074
:103B90000002044000040440F8B50D46C168806985
:103BA000144600274618BC4204BF2046F8BDE95D14
:103BB000F01906F0DDFC0137F5E703F0C2BF80B570
:103BC0000220092106F0E0FF0320092106F0DCFFB6
:103BD000002080BD042A1CBF6FF00300704710B5A1
:103BE0000C46022100F022F80321208000F01EF88C
:103BF0006080042010BDB0B5042A1CBF6FF0030024
:103C0000B0BDB1F900000C464FF0FF35002803D4D9
:103C100081B2022004F0DEF9B4F90200A84203DD0B
:103C200081B2032004F0D6F90420B0BD034800EBB4
:103C300001114868897BFEF7A9BC00BF80CC000851
:103C400003F07FBF80B50620FEF782FE052106F057
:103C50009BFF012100F04EF8002080BDB0B5074C5D
:103C6000656805F04FFB064872B60460206880F373
:103C7000088862B62846BDE8B040004700E4FF1F50
:103C800008ED00E010B501F140404FEA3020032874
:103C900007D80FF20601DFE800F00207161130BF67
:103CA0000EE06FF004040CE00A490FA20220FDF7B9
:103CB000B1FF0021002400F01DF802E0FFF7CEFF65
:103CC0000024204610BD034903A20220FDF7A2FFF5
:103CD000FFF7BCF9B7E100085265626F6F74696E57
:103CE000672E2E2E00000000506F776572206F66E1
:103CF0006621000010B506200C46FEF729FE21467D
:103D0000BDE8104005F0C0BB03F01BBF80B5072025
:103D1000FEF71EFE012106F037FF0720FEF718FE12
:103D20000249012204F022FC002080BDCD7A000867
:103D3000082A1CBF6FF00300704780B500F002F83E
:103D4000082080BD10B50A480C4600210068C4E96F
:103D500000100720FEF7FCFD05F086FB2178B0FA85
:103D600080F0400901F0FE010844207010BD00BF42
:103D70009C04002003F0E5BE80B51120FEF7E8FDAD
:103D8000052106F001FF002080BD082A1CBF6FF04E
:103D90000300704710B511200C46FEF7D9FDD4E999
:103DA0000012FFF739F8082010BD03F0CABE00006A
:103DB0001FB504461020FEF7CBFD032106F0E4FEFC
:103DC0000B48FDF7EBFC20680622C36802A92046D9
:103DD00098479DF80A00BDF8083006A107A2009098
:103DE0000120FDF717FF00F05DF8002004B010BDC2
:103DF000002401406F6E496E69740000766F6C7428
:103E00006167653A2025646D562C206C6576656C7B
:103E10003A20256425250000062A1CBF6FF0030008
:103E2000704710B510200C46FEF792FD04F0C0F864
:103E3000012141F20402A4F803104FF42F6148431A
:103E400040F6FF71B0FBF1F04100218089B2914250
:103E500038BF420090B240F61C41884298BF0A46E3
:103E6000054990B2642200FB02104FF47A7190FB76
:103E7000F1F0A070062010BD1045FBFF80B5EB48A7
:103E8000814209D0B1F1804F1CBF6FF0040080BDAA
:103E90000A48FDF783FC01E000F004F8002080BD33
:103EA0000001004080B50548002103F0A7FF044849
:103EB0000021BDE8804005F0DDB900BF00240140CD
:103EC0000900180003F03DBEBFB56846FFF770FD5E
:103ED0009DF805304FF461609DF80210BDF8005068
:103EE0009DF803209DF80640584340F26D13C1EB46
:103EF00001116B4303EB4101114440F2A3225143F2
:103F0000BDF8082000EBC110C4EB041100EB8100E8
:103F10009DF8071008444FF47A7100FB012004B0AB
:103F2000B0BD000070B50E4E3078BFF35F8FC00794
:103F300001D0301D70BD0A4C204607F019FF002843
:103F4000F7D0251D07490B222846FFF7E9FA064856
:103F5000064A2946FCF728FB204607F037FFE8E72A
:103F600018030020C80000202735000800000008C2
:103F700000207047F8B50D4E14460D460027BC4290
:103F80000AD03046FFF7CEFB28B13046FFF738FBAA
:103F9000E8550137F3E73C462046F8BD10B5034825
:103FA000144600F03EF8204610BD00BFF803002084
:103FB00003F0C7BD0020704780B59C4881420DD0FA
:103FC0000A4881420DD00A4881421CBF6FF00300AD
:103FD00080BD1068BDE88040FEF710BCFEF70CFC09
:103FE00001E0FEF707FC002080BD00BF000200409A
:103FF0000000044003F0A5BD00207047AFF300802F
:1040000069B1B0B5054608460C46FCF7FEF8024615
:104010002868214643682846BDE8B040184700207C
:104020007047F8B514460D4606460027BC4208D036
:104030003068E95D02683046904708B10137F5E71E
:104040003C462046F8BD82B070B5A2B0CDE926232B
:1040500026AB0C4605468021019302AE224630462F
:1040600008F088F8044628463146FFF7C9FF204685
:1040700022B0BDE8704002B0704770B5A0B06D4688
:1040800013460A4604468021284608F073F806467F
:1040900020462946FFF7B4FF304620B070BD00002F
:1040A000B0B5044674200D4611FB0040D1B21AB2DF
:1040B000203002F07BFD00B1B0BD012D06D07DB9EE
:1040C0002E4904F1100004F1200204E02D4904F10E
:1040D000100004F194023223BDE8B04002F028BD84
:1040E0006FF00600B0BD00BFB0B5054620300C46ED
:1040F00003F00CF805F194002146BDE8B04003F050
:1041000005B84968062903D0012907D100F03CB859
:1041100090F8611001F00F0180F861107047000005
:104120002DE9F04105460868022818BFBDE8F08176
:1041300005F1100605F120041049DFF84480322310
:1041400030462246C0478E4905F1540230460423CA
:10415000C04705F194070B49304632233A46C04721
:10416000864905F1C80230460423C047204603F0C3
:1041700015F83846BDE8F04103F010B8C4D900087E
:10418000156B0008D8D900081FB50446C06960B196
:10419000017A31B1016800224B694FF080419847A4
:1041A00058B11A4929A2032002E018492FA202207F
:1041B00004B0BDE81040FDF72DBDE069017AF9B10A
:1041C00001680622CB6802A99847062818D19DF8F5
:1041D0000A00BDF808300D490DA200900120FDF73E
:1041E00019FD9DF80A1004F1200003F025F8E0699C
:1041F000017A21B1016800224B690C4998471FBD23
:1042000002490BA20320FDF705FD1FBDB3D900082D
:10421000766F6C746167653A2025646D562C206C4E
:104220006576656C3A202564252500000001004074
:104230004661696C656420746F20726561642062F8
:1042400061747465727920696E666F004661696C8D
:10425000656420746F2077616B657570206261748E
:104260007465727920646576696365004E6F2062BB
:104270006174746572792064657669636520666F20
:10428000756E640080B58A68082A14D0042A15D097
:10429000012A1CBF6FF0020080BD0A6883689A4241
:1042A00017D043689A4218D0C3689A4218D1C96897
:1042B000FFF727FF14E000F015F811E00A69182A4B
:1042C0001CBF6FF0010080BDC968BDE8804000F0F0
:1042D00059B8C968FFF724FF02E0C968FFF704FF77
:1042E000002080BDF8B5044600F120050026002717
:1042F000E82E05D0A81902F095FC07447436F7E7BC
:1043000007B1F8BD2068BDE8F84002F080BB0000AE
:10431000BCB5044674200D4611FB00400FA12B468E
:10432000426500920FA20120FDF774FC012D06D01A
:1043300085B9134904F1100004F1540204E00F4957
:1043400004F1100004F1C802042302B0BDE8B0403B
:1043500002F0EEBB6FF00600BCBD00BF7365745584
:104360006E697400536574206D6F746F72202564DC
:1043700020756E697420746F20256400FCD90008D4
:10438000ECD90008B0B50B7B022B07D32AA12DA2D4
:104390000320FDF73FFC6FF00600B0BD044608683F
:1043A000421E6FF00200072A3CD8DFE802F0040B3F
:1043B000151C3C3B3037742013FB0040203002F0CA
:1043C0009FFF2EE0742013FB004090F8611001F075
:1043D0000F0180F8611024E0742013FB00402030AE
:1043E00002F0DCFE1DE004F120007422022513FB24
:1043F000020393F8414065F31F1483F841400B7B9F
:1044000013FB02000A7D896802F086FC09E00A6954
:1044100020461946BDE8B040FFF77ABF2046FFF7B7
:10442000B3FE0020B0BDD1E90125194620462B4638
:10443000BDE8B040FFF734BE6F6E4E6F74696679A9
:1044400000000000496E76616C6964206D6F746FC6
:10445000722049443A2025640000000070B50446EB
:1044600040F8101B0D4602F06DFB2026A01902F04B
:1044700055FF7436B6F5847FF8D1FFF753FD19A1C7
:10448000FFF737F8A06158B304F161010022022A56
:104490000BD00B7841F8095C41F8050C03F0F003F0
:1044A000134301320B707431F1E7FFF73BFD0FA1AD
:1044B000FFF71FF8E06120680EA102F0ADFA60601E
:1044C00070B120680DA102F0A7FAA06020680DA1CC
:1044D00002F0A2FAE06020680C490D2202F031FAE5
:1044E000204670BD4D6F746F72000000426174749D
:1044F00065727900436C6F636B000000476C6F62FC
:10450000616C0000427574746F6E0000DD7A000803
:1045100070B588B00C468968054691B1E268666856
:1045200003A805F04FFD02462846314605F0A4FDDC
:10453000E16888420BD06368CDE900010A490BA20B
:104540000AE06168284605F077FDA06008B1002008
:1045500007E06368044913A20320FDF75BFB6FF0DB
:10456000040008B070BD00BF44DE00086B65792010
:104570002725732720646174612073697A65206D33
:1045800069736D617463683A2073697A653A25646A
:1045900020213D20696E666F2D3E73697A653A254C
:1045A000640000006B65792027257327206E6F74E7
:1045B00020666F756E6400002DE9F04F9BB00446D5
:1045C000086805280AD8DFE800F0030C13202F83C1
:1045D00020461BB0BDE8F04FFFF79ABF6FF0020016
:1045E00084E0D1E901322046194605F0C5FD10E00E
:1045F000D1E90153CA686846194605F0E3FC024652
:104600002046294605F0D2FD03E04968204605F022
:10461000FFFC0346002859D03749634A0320FDF7C1
:10462000F9FA6FF0040061E06D462046294605F076
:1046300099FD314E31A201203146FDF7EBFADFF84A
:10464000D0B005F1100700250FF224180FF2301931
:104650000FF2401A2046694605F03DFDB0B3012037
:10466000314629A22B46D8470120314629A23B4694
:10467000D8479DF80030012031462AA2D8479DF83E
:104680000130012031462BA2D8479DF8023001208D
:1046900031462CA2D847019B012031462DA2D84794
:1046A000029B012031462FA2D847039B01203146AF
:1046B0004246D847149B012031464A46D847159BAD
:1046C000012031465246D8470135C3E700200DE0AE
:1046D000D4F86C03017A0029A3D0016800224B6949
:1046E00004499847002818BF6FF004001BB0BDE8CC
:1046F000F08F00BF000500404ADE00084B657920BE
:104700006C6973743A0000005B25645D3A00000038
:10471000151C0008096E616D65203D202725732753
:104720000000000009737461747573203D202564D6
:1047300000000000096372635F69735F6F6B203D67
:1047400020256400096E616D655F6C656E203D20FB
:1047500025640000096D61676963203D203078257C
:1047600075000000096C656E203D20256400000086
:104770000976616C75655F6C656E203D202564006F
:1047800009616464722E7374617274203D20307804
:104790002575000009616464722E76616C75652070
:1047A0003D2030782575000035DE00088A68022A31
:1047B00009D0042A1CBF002070470A69102A08D1BA
:1047C000C968FFF7F9BE0A69102A02D1C968FFF764
:1047D0009FBE6FF0010070477CB500260D46044671
:1047E000C0F86C63FFF79EFB10A1FEF782FEC4F8D1
:1047F0006C03C0B120464FF45B71FBF7EFFC0DA1D9
:104800000EA220460023009605F084FD30B1034639
:104810000DA10FA20320FDF7FDF904E0124928467F
:10482000072202F08EF820467CBD00BF466C617303
:1048300068000000636F6E66696700006664625F0F
:104840006B7664620000000044505F4B56444200A7
:104850006664625F6B7664625F696E69742065721C
:10486000726F723A20256400E37A0008FEB5124D9B
:10487000436B044611A201202946FDF7CBF900261F
:1048800015A7042E08BFFEBD06EB4600204490F994
:10489000381000290DD490F9392090F93A00C9B2A6
:1048A0003346CDE900120290012029463A46FDF731
:1048B000B1F90136E5E700BF8EDE0008486F75727A
:1048C0006C7920616C61726D2066696C7465723AF6
:1048D0002030782530385800416C61726D20256495
:1048E0003A20253032643A253032642C204D7573DD
:1048F00069632049443A202564000000B0B54FF0B8
:10490000FF3201464FF6FF73002441F8102B0422BA
:10491000851883520332AC7003358D42F8D1B0BD97
:10492000B0B504460868022818BFB0BD04F10C05F4
:104930000A4904F134021023284602F0EBF820461D
:10494000FFF794FF064904F144022846322302F09F
:10495000E1F82046BDE8B04000F080B870DE000805
:104960007CDE0008E0B50B46416B21FA03F2D2076A
:1049700004D01946BDE88C4000F046B9009103A16F
:1049800006A20220FDF746F98CBD00BF6F6E486F8E
:1049900075724368616E676564000000686F7572C8
:1049A0003A202564206973206E6F7420696E20663A
:1049B000696C7465723A203078253038582C207331
:1049C0006B6970001CB58B69002B26D4082B09D3AA
:1049D000082016A119A200900320FDF71BF96FF023
:1049E00006001CBDCA69002A05D403EB430400EB92
:1049F0004404A4F844200A6A002A05D403EB4304C3
:104A000000EB4404A4F846204A6A002A05D403EBCC
:104A1000430300EB4303A3F84820896A002901D42B
:104A2000A0F8741000F01AF800201CBD73657441E2
:104A30006C61726D4D75736963000000696E646529
:104A4000783A202564206F7574206F662072616E3D
:104A500067653A20307E2564000000002DE9FF41A3
:104A60000F4E804600F1440400250EA7082D0DD0FE
:104A700020886188A2882B468DE8070001203146F6
:104A80003A46FDF7C7F806340135EFE7B8F8743059
:104A900003490FA2012004B0BDE8F041FDF7BAB808
:104AA00050DE00085B25645D3A20256420487A2C9E
:104AB000206475726174696F6E3A202564206D738D
:104AC0002C2074696D653A202564206D7300000008
:104AD00062706D3A2025640010B58AB00B46184903
:104AE0000791184906911849059118490491072121
:104AF0000391174902910821ADF82410B0F8741001
:104B0000002BADF8261000F14401089101D4042BCC
:104B100007D310A113A20320FDF77CF86FF0060065
:104B20000BE002AA0124143052F8331002EBC30246
:104B30000094D388928802F015F80AB010BD00BF27
:104B400012003200F0D200080A002800B4D2000897
:104B50005CD30008706C6179416C61726D4D757346
:104B600069630000496E76616C6964206D757369D4
:104B7000632049443A20256400000000BFB5044684
:104B80000023042B08BFBFBD03EB4300251895F994
:104B90003800002805D4884203D195F939009042A5
:104BA00001D00133EDE795F93A00CDE9001207A1F4
:104BB0000AA202900120FDF72DF895F93A1020463F
:104BC00004B0BDE8B040FFF787BF00BF6F6E4D690E
:104BD0006E7574654368616E676564004D617463EA
:104BE00068656420616C61726D2025643A2025300F
:104BF00032643A253032642C204D75736963204944
:104C0000443A202564000000BCB50B46002901D4BD
:104C1000182B07DB8C4A16A10320FCF7FBFF6FF073
:104C20000600BCBD01466FF00100104A00EA930087
:104C300003F00703145A104432F81350408821F847
:104C40001C4FBB24888102EB43008C824D82CC81B7
:104C50000C814C80042200234088C88001200090F1
:104C6000A1F1080001F07EFFBCBD00BF86D30008A3
:104C7000706C6179416C61726D486F75726C794DC1
:104C8000757369630000000080B58A68042A0FD03C
:104C9000012A1CBF6FF0020080BD0A6843689A4277
:104CA00011D083689A421ED1C968FFF739FE1AE015
:104CB0000A692C2A1CBF6FF0010080BDC968BDE8DD
:104CC000804000F013B8C9680A68022A06D0012A99
:104CD00009D149684979FFF745FE04E04A685179EE
:104CE0009279FFF74BFF002080BD0000F8B5044625
:104CF00008680138092884BF6FF00200F8BD0D462E
:104D0000DFE800F0051216242A2E3A454B516B6855
:104D1000002B01D4042B4DD33C4956A20320FCF7B1
:104D200079FF6FF00600F8BD2046FFF79FFD21E0F8
:104D30006B6936493BA2012044F8343FFCF76AFF17
:104D40004049A4F12800224610231BE020462946B2
:104D5000BDE8F840FFF736BE2046FFF77FFE09E0CA
:104D600004F144003221FBF739FA284928A2012036
:104D7000FCF750FF0020F8BD234904F10C0004F1BA
:104D80004402322301B0BDE8F04001F0D1BE2969F0
:104D90002046BDE8F840FFF79FBEA9682046BDE861
:104DA000F840FFF731BFD5E907122046BDE8F840CB
:104DB00000F06CB8AE68701C192809D2EF68002F9B
:104DC00001D43C2F09DB114925A203203B46A6E76D
:104DD0000E491D4A03203346A1E7B6F1FF3F06DC2A
:104DE0000A491AA20120FCF715FF2F1DC8CF03EBBB
:104DF000430004F13402296910448171114947715B
:104E0000067104F10C009FE77CDE000899DE0008C3
:104E1000416C61726D206D7573696320636C6561AF
:104E20007265640053657420686F75726C792061D7
:104E30006C61726D2066696C7465723A20307825F9
:104E40003038580070DE00085FDE00084469736186
:104E5000626C6520616C61726D2025640000000049
:104E6000496E76616C6964206D696E7574653A206F
:104E700025640000496E76616C696420616C617222
:104E80006D2049443A20256400000000E0B5034647
:104E9000012023F81C1F5A800090A3F10800194636
:104EA0000122002301F05EFE8CBD0000B0B5044677
:104EB00001600C300D4601F045FE04F11400294656
:104EC00001F064FE04F11C001821FBF787F904F1DE
:104ED0003400FFF713FD04F144003221FBF77EF9A3
:104EE000206808A101F098FD606048B1206808A121
:104EF00001F092FDA06020680749052201F021FD24
:104F00002046B0BD54696D654D6F6E69746F720057
:104F1000476C6F62616C0000E97A0008E0B5806858
:104F2000CDE90012017A21B1016808220B696946B6
:104F300098478CBD80B549680A290AD190F820109D
:104F400009A281F0010304A180F820300120FCF7C0
:104F500061FE002080BD00BF6F6E427574746F6E7D
:104F60004576656E74000000536574206D75746538
:104F70003A2025640000000010B5C368044609A16A
:104F80000AA20120FCF746FE0020C4E903002068C5
:104F900001F03DFD204600210022BDE81040FFF752
:104FA000BDBF00BF73746F7000000000417564697D
:104FB0006F2073746F703A2025700000BFB50446EF
:104FC00090F8200048B11E491EA20220FCF722FEE4
:104FD0006FF00204204604B0B0BD886800B32046DC
:104FE00050F80C2F0AB1227E3AB30022E26191E818
:104FF0002C0080E82C00097B0173E368C3B12069B1
:10500000B0B16169227E8DE8070001200C491DA224
:10501000FCF700FE20680021002401F03DFCD9E7E8
:10502000074926A20320FCF7F5FD6FF00604D1E73F
:105030002046FFF7A1FF0024CCE7014908A2C4E7FE
:105040009CDA0008417564696F206973206D75747E
:1050500065642C2063616E277420706C6179000098
:10506000417564696F20697320706C6179696E673E
:105070002C2063616E277420696E7465727275707E
:1050800074000000417564696F2073746172743A32
:105090002025702C206C656E6774683A2025642C7E
:1050A0002062706D3A2025642C20696E74657272DE
:1050B00075707469626C653A2025640062706D20B9
:1050C0006E656564203E20300000000010B5024689
:1050D0008868431E0020072B24D8DFE803F0040D66
:1050E00023172323231F50680B68834219D1C968F3
:1050F0001046FFF71FFF14E00869102813D1C86895
:1051000002F10C011022FBF742F80AE008691028AE
:1051100009D1C9681046FFF751FF02E0104600F0C0
:1051200005F8002010BD6FF0010010BDB0B50446B9
:105130000169C069884222D2E268411C00EB40004C
:105140006369E16102EB400532F81010688800EBFA
:1051500080000001B0FBF3F22046FFF7DFFEA888D5
:105160006988884288BF014601EB810062690101BC
:105170002068B1FBF2F1BDE8B04001F0D6BB20469B
:10518000BDE8B040FFF7F8BE7FB50446002001251A
:10519000502684F82000E0612576C4E903006661AA
:1051A0002160FEF7BFFE0EA1FEF7A3F9A060A0B13B
:1051B00020680DA101F030FC606020680C490F22CE
:1051C00001F0BFFB032069468DF80C500296019058
:1051D000084800902046FFF7F1FE204604B070BD5D
:1051E00042757A7A65720000427574746F6E0000C1
:1051F000EF7A000898D30008B0B586B00546086875
:10520000022829D105F108041D4905F114020223E1
:10521000204601F07FFC1B4905F1160220460223BF
:1052200001F078FCAB8A002433B32869ADF8104054
:10523000E98ACDE90244ADF81230027AADF81410D3
:1052400062B101684B69104902AA9847BDF8141071
:10525000BDF81230044603E000240DE06FF00204B4
:1052600008B20E4A09A1CDE900040120FCF7D2FCE6
:10527000002C18BF6FF00404204606B0B0BD00BF7C
:105280005EDA000889DA000800000E406F6E476C95
:105290006F62616C4576656E7400000014DA000878
:1052A0002DE9F0418CB080462548304E25A12BA237
:1052B000009001203346FCF7ADFC0AA82CA1009019
:1052C00009AD0BAB30462A46FAF7E6FF00272BA4C0
:1052D00000260C2F07D054F827102846FAF79CFF19
:1052E00018B10137F5E7002500E07D1C06A82FA1C5
:1052F0000090134808AA07ABFAF7CEFF0A98039666
:10530000ADF8146004968DF80A50ADF808000B98BB
:105310008DF80B0008988DF80D0007988DF80E0099
:1053200006988DF80F00D8F81000017A21B10168B5
:105330004B695D4902AA98470CB0BDE8F08100BFF7
:1053400063D90008736574436F6D70696C65546947
:105350006D65546F436C6F636B0000004275696C40
:10536000643A202573202573000000006CD90008E2
:1053700025337320256420256400000071DA0008BD
:105380000CDA00087DDA000881DA000898DA0008F3
:1053900075DA00086DDA000869DA000879DA0008C1
:1053A00085DA000894DA000810DA000825643A2546
:1053B000643A2564000000001FB504468868421E58
:1053C0004FF0FF30072A36D8DFE802F0040B35161D
:1053D0003535352060680A6882422ED04FF0FF30A4
:1053E00029E0D1E9033220691946FEF747F80E3863
:1053F00018BF6FF004001EE00869142819D1C968AD
:10540000204604B0BDE8104000F01EB82069017AC3
:1054100061B101680E22CB68694698470E2805D114
:10542000206869460E2201F0CCFA04E06FF0040017
:1054300001E06FF0010004B010BDC968204604B05F
:10544000BDE81040FFF7D8BE70B5044608680128D3
:105450000AD120690E46017A49B10168321D4B69B3
:1054600011499847054604E06FF002051AE06FF015
:105470000205F08990B1318A022324F8161F0B49E6
:105480002246A4F10E0622F8020D304601F050FB30
:10549000074930462246022301F04AFB002D18BF7F
:1054A0006FF00405284670BD00000E405EDA00086B
:1054B00089DA0008B0B50446016008300D4601F0F5
:1054C00041FB0020C4E90400FEF72CFD0CA1FEF70F
:1054D00010F8206190B120680BA101F09DFA606086
:1054E0002046FFF7DDFE206809494FF0FF3201F04A
:1054F00028FA28464FF4FA6101F0CEF92046B0BDF3
:10550000436C6F636B000000476C6F62616C00005E
:10551000F57A00081CB50146044651F8200F022810
:105520000FD1204926A20220FCF774FB6069017AA2
:1055300099B3016800224B69264902B0BDE81040CA
:105540001847022020222062206801F03AFA083031
:1055500007D1144914A2022002B0BDE81040FCF7A4
:1055600059BBA069017A21B1016800224B690B493E
:1055700098476069017A21B1016800224B690749A7
:10558000984754F80C0B01F042FA01200449032219
:1055900000230090204601F0E5FA1CBD0001004008
:1055A000AAD3000828D9000853746F702073687557
:1055B00074646F776E2070726F63657373000000A0
:1055C000476F20746F20495350206D6F64652E2EF5
:1055D0002E0000000003004010B50446C06A0128F8
:1055E00014DBE06C90B9606CFEF726F9E36A4FF4C7
:1055F0007A715943884209D905A109A20220FCF712
:1056000009FB2046BDE81040FFF784BF10BD00BF76
:10561000636865636B53687574646F776E00000030
:105620004175746F2073687574646F776E2061665E
:10563000746572202564736563000000B0B504468C
:105640004868042805D0032814D1FEF73DFCA06467
:1056500010E0A06CFEF7F0F8054607A10AA20020B2
:105660002B46FCF7D7FA42F21170854202D320464E
:10567000FFF750FF0020B0BD6F6E427574746F6EFF
:105680004576656E740000004C6F6E672070726521
:10569000737365642C20656C617073203D202564F4
:1056A000000000001CB504460868052808D004283E
:1056B0001BD1E069017AC1B101684B690D4912E063
:1056C00048680068019080B1E069017A21B1016801
:1056D0004B69074901AA98476069017A29B10168B5
:1056E0004B694FF080410022984700201CBD00BF4D
:1056F000000004400001004010B50446086802386C
:10570000052836D8DFE800F00308121C2F332046A6
:10571000BDE81040FFF7FEBE6069017A49B3016839
:1057200000224B692649BDE810401847E06C11493A
:105730001DA2431C0120E364BDE81040FCF76ABAD7
:10574000E06C0C490CA2431E0120E364FCF762FAF2
:10575000E06CB0F1FF3F06DC06490EA20220FCF728
:1057600059FA0020E064FEF7AFFB606410BDC86822
:10577000E06210BD3CD90008556E6C6F636B2077FA
:10578000616B6575702C20636F756E74203D2025EC
:10579000640000004572726F7220756E6C6F636BEF
:1057A0002077616B657570004C6F636B2077616B60
:1057B0006575702C20636F756E74203D2025640024
:1057C00000020040BCB5044688680D46411E6FF0DB
:1057D0000200072947D8DFE801F00410462F4646AB
:1057E000463728686168884235D0A168884236D13A
:1057F000E9682046FFF722FF31E02869202827D1F9
:10580000A069017A69B301680622CB6869469847A6
:10581000062826D10120202244F8200FBDF80000E0
:10582000214620819DF80200E071BDF80300A080B0
:10583000E868FAF7ACFC12E02869202808D1E9688A
:105840002046FFF759FF0AE02046FFF7C5FE06E0B5
:105850006FF00100BCBDE9682046FFF723FF002080
:10586000BCBD6FF00400BCBD10B5044601600C3037
:1058700001F08CF9002014212085C4E9080004F10E
:105880002C00FAF7ABFCFEF74DFB1CA1FDF731FE37
:10589000606130B3FEF746FB1AA1FDF72AFEA06156
:1058A00010B3FEF73FFB19A1FDF723FEE061F0B155
:1058B000206818A101F0B0F86060206817A101F01D
:1058C000ABF8A060206817494FF0FF3201F039F8BB
:1058D000FEF7FAFA2064FEF7F7FA60640020E0624F
:1058E0000AE0114920A204E00F4917A201E00E4985
:1058F0000EA20320FCF78EF9204610BD506F77658D
:105900007200000042617474657279005469636BBF
:1059100000000000476C6F62616C00004275747497
:105920006F6E0000FB7A000833D900084661696C8D
:10593000656420746F20676574205469636B20640C
:1059400065766963650000004661696C6564207472
:105950006F20676574204261747465727920646594
:1059600076696365000000004661696C65642074B7
:105970006F2067657420506F776572206465766963
:10598000636500001CB5012805DC13A1002005F0AB
:105990000DFC01240FE0CDE900010848694608220A
:1059A000006801F00EF8044605A0214605F040FC11
:1059B000002C18BF012420461CBD00BF340200206B
:1059C0007075626C6973682066696E697368656476
:1059D0003A2025640D0A000055736167653A20700E
:1059E00075626C697368203C746F7069633E205BFC
:1059F000646174615D00000080B5012805DC07A1C9
:105A0000002005F0D3FB012080BD4868FAF7AEFD09
:105A1000C0B2FCF755F9002080BD00BF5573616727
:105A2000653A206C6F676C6576656C203C6C6576BA
:105A3000656C3E2C206C6576656C3A20307E3400B7
:105A40000868042808BF05F0C1BC7047F0B58BB0EA
:105A500001AF0D46064611460022002300243846B9
:105A600002F0AFFB384631462A4602F0BBFB064641
:105A7000012803DB2968042005F098FB012EB8BF3C
:105A8000012420460BB0F0BDB0B592B00A460546E1
:105A900041680C480E23006800F065FF044658B1C9
:105AA0002B68009402AD08A24021284606F034FB82
:105AB0000620294605F07AFBB4FA84F0400912B0BA
:105AC000B0BD00BF3402002070756C6C20272573B8
:105AD00027206661696C65643A2025640000000037
